:020000040800F2
:1000000070050020650100081D0A0008ED070008C2
:10001000190A000859070008850C000800000000B4
:10002000000000000000000000000000250A000899
:100030005D07000800000000210A0008290A0008E6
:100040007F0100087F0100087F0100087F01000890
:100050007F010008610700086507000869070008BC
:100060007F0100087F0100087F0100087F01000870
:100070007F0100087F0100087F010008490C00088B
:100080007F0100087F010008000000007F010008D8
:100090007F0100087F0100087F010008F5070008C4
:1000A0007F0100087F0100087F0100087F01000830
:1000B0007F010008000000007F0100080000000030
:1000C000F1070008000000007F01000800000000A8
:1000D0000000000000000000000000000000000020
:1000E00000000000000000007F0100080000000088
:1000F0000000000000000000000000000000000000
:100100007F01000800000000000000000000000067
:1001100000000000000000000000000000000000DF
:1001200000000000000000000000000000000000CF
:1001300000000000000000000000000000000000BF
:100140000000000000000000000000007F01000827
:10015000DFF80CD000F060FA00480047FD130008FB
:10016000700500200648804706480047FEE7FEE786
:10017000FEE7FEE7FEE7FEE7FEE7FEE7FEE7FEE757
:100180002D0A00085101000830B5041E71F1000469
:1001900004DB4FF00044404264EB0101141E73F194
:1001A000000405DB1C464FF00043524263EB04039E
:1001B000801A994101D3012030BD002030BD30B5F7
:1001C000041E71F1000404DB4FF00044404264EB74
:1001D0000101141E73F1000405DB1C464FF00043BF
:1001E000524263EB0403101A8B4101D3012030BD4E
:1001F000002030BD00F0004230F000400AD0C10DB8
:1002000001F56071C0F3160042EA0151C2084007CF
:100210001143704700200146704730B50B46014638
:1002200000202022012409E021FA02F59D4205D395
:1002300003FA02F5491B04FA02F52844151EA2F13F
:100240000102F1DC30BD2DE9F05F05460020924649
:100250009B4688460646814640241BE02846414688
:100260004746224600F0F9F953465A46C01A9141D2
:1002700010D311461846224600F0E0F92D1A67EB1C
:1002800001084F4622460120002100F0D7F917EB64
:1002900000094E41201EA4F10104DFDC484631462E
:1002A0002A464346BDE8F09F2DE9FE4F804681EA8D
:1002B0000300C00F0C46009021F0004123F00045E0
:1002C000B8EB0200A94105D24046214690461C46A3
:1002D0000B46024623F00040104347D0270DC7F3DA
:1002E0000A00C3F30A510290401A019040286BDAC9
:1002F000C3F3130040F4801B0098924620B1002302
:10030000D2EB030A63EB0B0B01985946C0F1400294
:10031000504600F093F906460D4650465946019A5C
:1003200000F0ABF910EB08006141002487EA11529C
:1003300084EAE7731A4340D0009A62B3019A012A13
:100340004FEA075215DC001B61EB02014FF000423F
:1003500002EA0752CDE90042001C41F58011324605
:100360002B4600F0ABF903B0BDE8F08F40462146C4
:10037000F9E7001B61EB0201001C41F58013001836
:100380005B412018A2F5001747EB030140EAD57046
:10039000B6196D4111E06D084FEA360645EAC075A1
:1003A0004FEA0752001B61EB0201001C41F580116E
:1003B00049084FEA30000019514132462B4603B03C
:1003C000BDE8F04F00F06BB9009801224000002317
:1003D000D0EB020263EBE073009821464FEAE07431
:1003E000B8EB000061EB0401E9E783F000435BE751
:1003F00081F0004158E72DE9FE4F81EA030404F043
:10040000004421F0004100944FF0000B23F0004322
:1004100050EA01045ED052EA03045BD0C3F30A54ED
:10042000C1F30A552C44A4F2F3340194A0FB025406
:10043000C1F3130141F48011C3F3130343F4801398
:1004400001FB024400FB034E840A970A44EA8154EC
:1004500047EA8357A4FB076802958D0A05FB0785C9
:100460004FEA932C04FB0C542705029D4FEA0658D3
:1004700047EA1637B5EB08056EEB070C870E920EB0
:1004800047EA811742EA8312A7FB0201B6EB0B0190
:1004900064EB00042B0D43EA0C335E1844EB1C5054
:1004A000DA465146E7FB0201C5F313044FEA0B336A
:1004B00043EA14534FEA0432019C43EA0603A4F1D1
:1004C0000C040294009CCDE900B400F0F7F803B0EE
:1004D000BDE8F08F00200146F9E72DE9F04D81EAF3
:1004E000030404F0004B21F0004514464FF0000ACD
:1004F00023F0004150EA050220D054EA01021DD049
:10050000C5F30A570246C5F31303C1F31300C1F341
:100510000A5640F4801543F48013A7EB0608101B1D
:10052000D64608F2FD3873EB050002D308F1010846
:1005300001E092185B41B8F1000F03DA0020014698
:10054000BDE8F08D00204FF48011064684460EE091
:10055000171B73EB050705D3121B63EB050306435B
:100560004CEA010C49084FEA300092185B4150EA0E
:100570000107EDD152EA030012D082EA040083EAB7
:100580000501084305D0101BAB4106D20122002310
:1005900006E000224FF0004302E06FF0010253102A
:1005A0001AEB06004CEB085110EB0A0041EB0B0173
:1005B000BDE8F04D00F073B8C1F30A52C1F3130166
:1005C00040F2FF3341F480119A4202DA00200146E2
:1005D000704740F233439A42A2F2334202DC524265
:1005E00000F03BB800F02AB830B5041E71F10004E9
:1005F00004DB4FF00044404264EB0101141E73F130
:10060000000405DB1C464FF00043524263EB040339
:10061000994208BF904230BD064C074D06E0E068A5
:1006200040F0010394E8070098471034AC42F6D339
:10063000FFF792FD702F0008902F0008202A04DB9E
:10064000203A00FA02F1002070479140C2F12003E5
:1006500020FA03F3194390407047202A04DB203A24
:1006600021FA02F00021704721FA02F3D040C2F1D2
:1006700020029140084319467047202A06DBCB1719
:10068000203A41FA02F043EAE07306E041FA02F34D
:10069000D040C2F12002914008431946704710B57E
:1006A000141E73F1000408DA401C41F10001921895
:1006B0005B411A4301D120F0010010BD2DE9F04D3E
:1006C00092469B4611B1B1FA81F202E0B0FA80F293
:1006D00020329046FFF7B2FF04460F4640EA0A0078
:1006E00041EA0B0153465A46084313D0114653EAD8
:1006F000010019D0C8F140025046FFF7AEFF054691
:100700000E46504659464246FFF798FF084305D02B
:10071000012004E020463946BDE8F08D0020054365
:1007200046EAE0762C4337430A986305E40AA0EBD7
:1007300008000022FD0A44EA47540A3002D500208E
:100740000146E9E7010510196941DDE9084500198D
:100750006941BDE8F04DA2E7FEE7000070470000E8
:10076000704700007047000010B5402000F0F6FA16
:10077000002808BF10BD45F200444020C4F2000428
:1007800000F0E6FA204600F099FD20464FF4806123
:1007900000F09CFC20464FF4847100F0C1FD20461F
:1007A0004FF4857100F0BCFD204640F2091100F0C5
:1007B000B7FD00BF204640F2016100F099FD00281E
:1007C000F8D1204600F00EFE40F25C1040F25411C9
:1007D000C2F20000C2F20001016040F26800C2F201
:1007E00000006FF00101016010BD0000FEE7000095
:1007F00000F002B800F066B870B540F2081545F296
:100800000044C0F20855C4F2000405F50036204645
:10081000314600F0A7FD18B12046314600F08CFDAE
:1008200005F5E0262046314600F09CFD18B1204633
:10083000314600F081FD05F5C0262046314600F026
:1008400091FD18B12046314600F076FD05F54036A1
:100850002046314600F086FD18B12046314600F0B2
:100860006BFD05F580362046314600F07BFD18B162
:100870002046314600F060FD2046294600F072FD1A
:1008800018B12046294600F057FD05F58025204681
:10089000294600F067FD18B12046294600F04CFDBE
:1008A00020464FF4847100F02DFD20464FF48571F1
:1008B00000F028FD204640F20911BDE8704000F02C
:1008C00021BD000070B545F2004440F20915C4F2A4
:1008D0000004C0F20155A5F58031204600F042FD2C
:1008E00050B140F26800C2F2000002682046302198
:1008F000BDE8704000F060BD2046294600F032FDA2
:10090000E0B140F26806C2F200063068811C6AD08D
:10091000012867D140F26000C2F20000018801297D
:1009200002D00088022803D12046002100F0CEFB2F
:1009300020462946BDE8704000F0FEBC05F5A02128
:10094000204600F00FFD00284CD040F26006C2F2B5
:1009500000063088002845D0308803280CD105F5E2
:10096000803500BF2046294600F0FCFC0028F9D065
:100970002046002100F0AAFB204600F047FC40F290
:100980005C11C2F200010A68531C0B6010703088C1
:10099000013830803088002818BF70BD40F26800F0
:1009A000C2F200006FF001010160204600F020FD5E
:1009B00020464FF4806100F089FB2046002100F0C2
:1009C0008BFB20464FF4847100F0AAFC20464FF4C4
:1009D000857100F0A5FC204640F2091100F0A0FC52
:1009E0000720308070BD2046294600F0A5FC204637
:1009F000A72100F00FFC05F5803500BF20462946F1
:100A000000F0B0FC0028F9D0012120463160BDE89B
:100A1000704000F0E7BC0000FEE7000070470000F7
:100A2000704700007047000000F038B981B042F212
:100A30001000C4F20200C16801F0060106295BD073
:100A4000C168890458D540F2231148F6AB12C4F2AC
:100A50006751CCF6EF5240F80C1C40F80C2C40F8D3
:100A6000081C40F8082C016841F020010160016871
:100A700041F04001016000BF50F8041CC907FBD1E0
:100A8000016821F020010160016841F0100101605E
:100A9000C16811F0060F4FF60001C1F6FF7106D0D4
:100AA000C26802F00602022A03D1BB2200E0A5229E
:100AB0000A80C268DF2303EA12224A80C268C2F3B6
:100AC00007428A80C268120ECA800269D2B20A81C5
:100AD000026992B2120A4A8150F8041CC907FBD17C
:100AE000016821F010010160016821F400710160CA
:100AF000016841F0800101604EF68851CEF200019C
:100B00000A6841F2040042F47002C4F202000A6072
:100B100050F8041C41F0010140F8041C50F8041C7A
:100B20008907FBD5016841F0800101600021009137
:100B3000009A4F2A06D800BF009A01320092009A0C
:100B4000502AF9D3026842F09002026000910099A5
:100B50004F2905D800990131009100995029F9D306
:100B600001684FF6FF7221F00301016050F8041C88
:100B7000CFF6F262114040F8041C01680C22C0F666
:100B8000FF021140016001684FF6FF72C7F2C272A6
:100B900011400160826A4FF6F071C3F6FF710A409E
:100BA0008262C26A40F203139A43C262C26A4FF67B
:100BB000FF7322F48032C262C26ACFF2C07322F0A5
:100BC0000042C262026B22F001020263D0F8BC2034
:100BD00022F48032C0F8BC2000224260C0F8C82055
:100BE00002680260026842F400520260026842F445
:100BF0008062026002681A400260826A114081626B
:100C0000016841F0006141F480210160816A8162E4
:100C100050F8041C41F0807140F8041C50F8041C8A
:100C20008901FBD5016821F003010160016841F0F1
:100C30000201016001680907FCD54FF00060002146
:100C400001B000F0DBBC000080B54FF08040012116
:100C500001F07EFC012818BF80BD40F26C10C2F28A
:100C6000000001684A1C9F29026003DB4FF08040AE
:100C700001F0F0FB4FF080400121BDE8804001F021
:100C800063BC0000FEE7000040F2E001C2F2000198
:100C9000086000BF08680028FCD1704740F2E000FF
:100CA000C2F200000168002908BF704701680139DD
:100CB0000160704740F2084CC4F2010C5CF8083C3B
:100CC000012923EA00034CF8083C5CF8043C23EAC1
:100CD00000034CF8043CDCF8003023EA0003CCF8B5
:100CE0000030DCF8043023EA0003CCF8043019D0DB
:100CF00021B95CF8081C01434CF8081C022A18D0E2
:100D0000012A6FEA000118D0002A18BF7047DCF8EA
:100D100000201043CCF80000DCF804000840CCF8B8
:100D2000040070475CF8041C01434CF8041C022AC0
:100D3000E6D1DCF80010014302E0DCF800201140AD
:100D4000CCF80010DCF804100843CCF8040070471D
:100D500040F21441C4F201010860704740F20041C2
:100D6000C4F201014A690968024000EA010018BFA3
:100D70000122002818BF012010407047B0B544F28E
:100D80000045C4F200050446C1B2284601F024FC27
:100D9000284640F2077101F045FC0028F8D02046B3
:100DA000B0BD000043F20000C4F200004AF6AA21E0
:100DB00001607047F0B581B005461DA050F82500D0
:100DC00014460F4600F0FEFD4FF4C06000F0FAFD3F
:100DD00042F6687142F66070C0F60001C0F600008D
:100DE00051F8256050F8250000210122334600F01B
:100DF000FFF8012F1CBF01B0F0BD07200221002227
:100E000000F0C0FB07200221012200F0BBFB0AA07A
:100E1000415D002001F068F8304600212246FFF7CE
:100E200049FF304601B0BDE8F040FFF791BF00BF79
:100E300011050000110500000605000010B504466C
:100E400040F2115000F0BEFD40F2117000F0BAFD0A
:100E50004FF090400121042200F038F84FF090400C
:100E60000121082200F032F84FF0904002210122C7
:100E7000042300F0BDF84FF090400021012204232C
:100E800000F0E0F84FF0904002210122082300F02A
:100E9000AFF84FF0904000210122082300F0D2F873
:100EA000204601F09DFB20464FF4614101F066FBB6
:100EB0002046082101F0C8FB2046042101F0BCFBBC
:100EC0002046BDE8104001F0A7BB0000F0B5D0F807
:100ED00020E0D0F824C000230F27002505E000BF44
:100EE0000135082D03F104030CD022FA05F6F607AC
:100EF000F6D007FA03F62EEA060601FA03F446EAEC
:100F0000040EEDE7082300240F2504E00133102B25
:100F100004F104040CD022FA03F6F607F6D005FA21
:100F200004F62CEA060701FA04F647EA060CEDE798
:100F3000C0F820E0C0F824C0F0BD000080B54FF03C
:100F4000904002210022802300F052F84FF09040A0
:100F500000210322802300F075F84FF09040022119
:100F60008022FFF7B3FF4FF09040022100221023B0
:100F700000F03EF84FF0904000210322102300F0D3
:100F800061F84FF0904004211022FFF79FFF4FF0CF
:100F9000904004214FF40072FFF798FF4FF090400B
:100FA00004214FF48062FFF791FF4FF0904002213F
:100FB00001224FF4007300F01BF84FF09040012124
:100FC00003224FF4007300F03DF84FF090400221EF
:100FD00001224FF4806300F00BF84FF090400121A4
:100FE00003224FF48063BDE8804000F02BB800007E
:100FF0002DE9F041D0F800E0D0F80CC000244FF00B
:101000000308002605E000BF0136102E04F102049B
:1010100012D023FA06F7FF07F6D008FA04F72EEAF3
:10102000070E01FA04F54EEA050E2CEA070702FA4C
:1010300004F547EA050CE7E7C0F800E0C0F80CC08B
:10104000BDE8F081F0B50129416814BF9943194307
:101050004160D0F808C04FF6FF718A421AD1C26BC6
:1010600000214FF0010E0324002500BF0EFA05F603
:1010700016EA030705F1010504FA01F71CBF4CEA63
:10108000070C3243102D01F10201EFD1C0F808C066
:10109000C263F0BD00214FF0030E002405E000BF45
:1010A0000134102C01F102010CD023FA04F5ED07F4
:1010B000F6D00EFA01F52CEA050702FA01F647EA26
:1010C000060CEDE7C0F808C0F0BD0000026822F48D
:1010D0008062114301607047026822F4006211438C
:1010E00001607047F0B581B00446022017460D46F6
:1010F00000F09CFA4DF68361C4F21B31A0FB011293
:10110000910C44F6BF52C0F2C13290420A4688BFE9
:101110003F22636848F2A066C0F2010623F03F0355
:10112000B54243EA0203636007D840F68032C0F25A
:10113000B23290422DD33F2133E041F68021C0F2FC
:1011400006018D423BD84FF49671514344F6D35279
:10115000C1F26202A1FB0212012101EB9211216294
:10116000E169192221F48041002F18BF01F5804167
:1011700008BF0322E161E1696A4341F40041B0FB29
:10118000F2F0E161E169020508BF41F001010843A5
:1011900012E048F27F42C0F21E0290428CBF013141
:1011A000022121626900B0FBF1F0042898BF0420FD
:1011B000E1696FF31F300843E06101B0F0BDC2EB9D
:1011C000021144F6D352C900C1F26202A1FB02121D
:1011D000012101EB92122262E269192322F480427A
:1011E000002F18BF02F5804208BF0323E261E269C5
:1011F0006B4342F40042E261B0FBF3F0E26910435A
:10120000E061C4F8901001B0F0BD00000069C0B208
:10121000704700000161704770B516460D460446E0
:10122000204640F2016100F063F80028F8D1204622
:1012300000F0D8F820464FF4A06100F059F80028DB
:10124000F8D0204630216FF0010200F0B5F800BF61
:10125000204640F2015100F04BF80028F8D020461B
:1012600040F2015100F030F8204640F2075100F002
:101270003FF80028F8D020463146FFF7CBFF00BFEB
:10128000204640F2075100F033F80028F8D02046FD
:101290002946FFF7BFFF00BF204640F2075100F08C
:1012A00027F80028F8D0204600F0A2F845F20040C8
:1012B000C4F2000001688905FCD470BD016841F0EA
:1012C000010101607047000040F20152914202D1D9
:1012D00041698069704701F01F02C1F389114FF025
:1012E000010C0B580CFA02F223EA02020A50704772
:1012F000C1F38912105801F01F01C84000F001002D
:101300007047000001F01F02C1F389114FF0010C7A
:101310000B580CFA02F223EA02020A50704700004E
:1013200001F01F02C1F389114FF0010C0B580CFAA8
:1013300002F21A430A50704740F20912C0F20152F9
:10134000914202D1416980697047C1F30442890D1D
:101350004FF0010C0B580CFA02F223EA02020A5079
:101360007047000080B5C1F3891340F20912D0F82C
:1013700004C053F800E021F48033C0F206529342D7
:1013800001F01F024FF0010303FA02F24FEA9153FA
:101390001B580EEA020006D10CF48062002818BF28
:1013A000012000EA9220C1F3044123FA01F1002850
:1013B00018BF0120084080BD21F00101023218BF92
:1013C0000131016170470000D0F800C06FF39F2326
:1013D0002CF0020C41EA0C01016043EA0201816039
:1013E00070470000016841F480710160704700009F
:1013F000016841F4007101607047000045F200444B
:1014000040F21150C4F2000400F0DCFA40F2157012
:1014100000F0D8FAFFF792FD00F0A4FD4FF4C06091
:1014200000F0E2F81720002102220025022600F039
:10143000A9F820200021012200F0A4F848F2A061C0
:10144000C0F2010120460022FFF74CFE2046002199
:1014500000223023FFF7B8FF2046FFF72FFF20467A
:101460004FF48061FFF732FE4FF4106000F0DEF9B8
:101470004FF4106000F0EAF900F0D4FA00F0F2FE48
:1014800040F26000C2F200000721018040F25C10CF
:1014900040F25411C2F20000C2F2000101600020CB
:1014A00001210122FFF786FC40F2E800C2F20000B1
:1014B000C0E90055C0E90255C0E90455C0E9065528
:1014C00040F22010C2F20000C0E90055C0E9025508
:1014D000C0E90455C0E9065540F27000C2F20000B0
:1014E000C0E90055C0E90255C0E90455C0E90655F8
:1014F00040F2A800C2F20000C0E90055C0E9025560
:10150000C0E90455C0E9065540F2DC00C2F2000013
:10151000066040F26810C2F200000421016040F64B
:101520001D1000F075F940F25806C2F2000610B125
:1015300000F072F817E0326804F55845284600219B
:1015400000F06CFE4FF4FA70FFF79EFB40F264105F
:10155000C2F2000002682846002100F05FFE4FF052
:10156000804000F077FFA4F58050FFF767FC3268F9
:10157000A4F55050002100F051FE00BF00F08CFA9D
:10158000FCE700004EF60C5CCEF2000CDCF80030FC
:1015900003F4E063A3F54073B3F5A06F01D21B0A17
:1015A00006E040F20053C0F2FA53CCF800300223B8
:1015B00001FA03FCC3F104030F21D94011404EF29C
:1015C000001241EA0C01CEF20002090140EA0203D6
:1015D00083F8001300F01F01012303FA01F11C231B
:1015E00003EAD0008150704740F080604EF60C5105
:1015F00040F0FD70CEF20001086070474FF6807237
:10160000C1F6FF72114008434EF60851CEF20001B8
:101610000860BFF34F8F704741F22400C4F202000C
:10162000016841F0807101607047000070B541F2BF
:101630000402C4F202020146106841F2002CC0F21A
:101640007A0C00F00C000828634641D1106813683A
:10165000956AC0F38344C3F3C063B5F1FF3F2046EE
:10166000C8BF0230002B18BF2046B5F1FF3F04462B
:10167000C8BF1134002B08BF0446002D204648BFC8
:101680002130002B18BF2046002D054648BF3135BC
:10169000002B08BF05461068936AC00306D440F6C5
:1016A0000010C0F23D0005FB00F311E0906A5B0002
:1016B00000F00F0000F1010302D4BCFBF3F005E0E1
:1016C00046F60040C0F2DC20B0FBF3F000FB05F36F
:1016D000156816681068062916D8C5F3031548A4BE
:1016E000655DC0F3C22023FA05FE42F65875C0F6C8
:1016F0000005285C2EFA00F0DFE801F004080A413A
:10170000101F2700184670BD002070BD704670BDC8
:10171000C6F30220285C2EFA00F070BDD16AC9051C
:101720002ED4D06AC00343F60070C0F2AB105CBF89
:1017300049F68070C0F2D50070BDD06A40064FF403
:10174000004058BF48F2120070BDD16A890708BF37
:1017500070BDD06A00F00300012818460FD0D06A8F
:1017600000F00300022804BF4FF4004070BDD06AAF
:1017700000F00300032818BF4FF0000C604670BD56
:101780001368D16AC3F38132DFE802F0020B17213C
:1017900000295CBF400870BD4AF6AB20CAF6AA20FB
:1017A0001DE000295CBF800870BD4CF6CD40CCF632
:1017B000CC40AEFB0001880870BD002913D44AF666
:1017C000AB21CAF6AA21A0FB0101880870BD00293F
:1017D0005CBFC00870BD48F63960C3F6E300AEFBDD
:1017E0000001480870BD44F62510C2F29240AEFBDD
:1017F0000001AEEB010001EB5000800870BD00BF9E
:1018000000000000000000000102030406070809B0
:1018100041F200028109C4F20202895800F01F005F
:1018200021FA00F000F001007047000041F20003CF
:1018300000F01F018009C4F202034FF0010CC258EE
:101840000CFA01F11143C150704700000146B0F598
:10185000006F4FF0000021DBB1F5506F3CDAB1F5BD
:10186000006F57D0B1F5106F40F0958041F2000C39
:101870004FF6FE71C4F2020CC0F20F01002200BF4D
:10188000DCF82400013942F10003800701D4002B69
:10189000F6D1DCF82400C0F340007047002953D093
:1018A000102979D0182976D141F2000C4FF6FE713B
:1018B000C4F2020CC0F20F01002200BFDCF80000ED
:1018C000013942F10003800101D4002BF6D1DCF88C
:1018D0000000C0F34060704747D043F210029142CD
:1018E00018BF704741F2000C4FF6FE71C4F2020CB3
:1018F000C0F20F01002200BFDCF8C000013942F144
:101900000003800301D4002BF6D1DCF8C000C0F343
:10191000404070474FF6FE7141F2000CC0F20F01DB
:10192000C4F2020C01F17C71002200BFDCF820003F
:10193000013942F10003800701D4002BF6D1DCF815
:101940002000C0F34000704741F20000C4F20200E2
:10195000A1F2FF410268920703D4002901F10101BD
:10196000F8D10068C0F34000704741F2000C4FF618
:10197000FE71C4F2020CC0F20F010022DCF8340048
:10198000013942F10003800701D4002BF6D1DCF8C5
:101990003400C0F34000704741F2000C40F2FF7089
:1019A000C4F2020C002200BFDCF80010013842F142
:1019B0000003890301D4002BF6D1DCF80000C0F34A
:1019C0004040704741F2000300F01F018009C4F25B
:1019D00002034FF0010CC2580CFA01F11143C1503F
:1019E0007047000041F2000300F01F018009C4F2BB
:1019F00002034FF0010CC2580CFA01F122EA010176
:101A0000C150704741F2000300F01F018009C4F289
:101A100002034FF0010CC2580CFA01F11143C150FE
:101A200070470000B0B540F20405C2F2000545F26F
:101A300000442978C4F2000420462022FFF7ECFB82
:101A4000697820462322FFF7E7FBA9782046212268
:101A5000FFF7E2FBE97820462222FFF7DDFB297938
:101A600020462522FFF7D8FB697920462422FFF77C
:101A7000D3FBA97920463022FFF7CEFBE979204637
:101A80003222FFF7C9FB297A20463322FFF7C4FB35
:101A9000BDE8B040FFF786B92DE9F04F83B040F2C2
:101AA0005413C2F2000318780F2840F0DA81197934
:101AB000D8785A799B79090141EA101040F2620105
:101AC0001B01C2F2000143EA121240F264030880D3
:101AD0004FF20001B0F5006FC2F20003CFF6FF71C4
:101AE00028BF084300EE100A9FEDE71A1A80B2F5EE
:101AF000006F28BF0A4302EE102AB8EEC00AB8EE03
:101B0000C22A80EE010A82EE011A40F26C07C2F28C
:101B10000007388040F26E00C2F20000028040F2FE
:101B2000D800C2F20000016840F27000C2F200006A
:101B3000019100EB810240F25011C2F200010B68EA
:101B400040F2E801C2F20001029301EB830383ED4E
:101B5000000A83ED041A40F2A00540F2181940F281
:101B6000240340F2A80A40F2480640F2201B40F24B
:101B7000380C40F2140E82ED000A82ED041AC2F213
:101B800000050022C2F20009C2F20003C2F2000AFC
:101B9000C2F20006C2F2000BC2F2000CC2F2000E4A
:101BA000C5E90022C9E9002215E000BF029F0BEB46
:101BB000021505EB870585ED001A40F2A00540F2FD
:101BC0001819002A02F10102C2F20005C2F200094E
:101BD00088ED001A6BD105EB820898ED001A019D83
:101BE000002409E0002D4FF0030704F10404C8BFEE
:101BF0006F1E102C3D461DD000EB021707EB85072A
:101C000097ED002A1F1997ED003A002C22EE032AC7
:101C100032EE011AE6D00AEB021707EB850797EDC3
:101C2000002A0EEB040797ED003A22EE032A31EE6C
:101C3000421AD7E7019D0AEB021488ED001A04EB63
:101C4000850409EB820884ED001A98ED001A029CC5
:101C50004FF000090BE000BF002C4FF0030509F125
:101C60000409C8BF651EB9F1100F2C469ED001EBC8
:101C7000021505EB840595ED002A06EB090595EDA7
:101C8000003AB9F1000F22EE032A32EE011AE3D036
:101C90000BEB021505EB840595ED002A0CEB09050D
:101CA00095ED003A22EE032A31EE421AD4E740F2D3
:101CB000DC00C2F200000221016040F26810C2F2B2
:101CC0000000046040F26010C2F2000004210160D4
:101CD00010EE100AFEF78EFA9FED650B53EC102BF9
:101CE000FEF76DFA40F2E404C2F2000430B90020BD
:101CF00020604FF4FA70FEF7C7FF29E0019899EDD4
:101D0000000A0130C11700EB917121F00301401A64
:101D100040F2D801C2F200010860029899ED011A60
:101D20000130C11795ED012A95ED003A00EB917154
:101D300021F0030120EE020A23EE011A401A40F2BC
:101D4000501131EE400AC2F2000184ED000A086031
:101D50006868FEF74FFA02464CA00B4600F07CFC88
:101D6000D9F80400FEF746FA02464DA00B4600F0F3
:101D700073FC2868FEF73EFA02464AA00B4600F0C4
:101D80006BFCD9F80000FEF735FA02464AA00B4674
:101D900000F062FC2068FEF72DFA02464BA00B46CD
:101DA00000F05AFC0A2001F0D1F840F2541000264D
:101DB000C2F2000006702068FEF71CFA9FED2E0BA1
:101DC000044653EC102B0D46FEF7F9F9E0B940F24A
:101DD0003405C2F2000542F200042A68C4F200048D
:101DE00004F58630002100F019FA2A682046002107
:101DF00000F014FA4FF0804000F032FB40F26C101B
:101E0000C2F2000006602CE040F26C169FED1C0B45
:101E1000C2F20006376853EC102B20462946FEF725
:101E2000B3F9F0B90C2F1CDB002030604FF080407C
:101E300000F010FB40F26410C2F2000042F2000415
:101E40000268C4F2000404F58630002100F0E6F9CF
:101E500040F25800C2F2000002682046002100F063
:101E6000DDF903B0BDE8F04FFEF79CBF00BF00BF37
:101E70009A9999999999F1BFB81E85EB51B89EBF6F
:101E80007B14AE47E17A84BF00C07F445A2D61784D
:101E9000697320616363656C3A2025662000000049
:101EA00025660000592D6178697320616363656C54
:101EB0003A20256620000000592D6178697320675B
:101EC0007261763A2025662000000000666F727706
:101ED000617264416363656C6C65726174696F6E95
:101EE0003A202566200000008A08032A88BF704730
:101EF0000C2303EA81010F238B4000FA01FC01EB64
:101F00008200D943DFE802F002230D180820C4F252
:101F10000100026811400160016841EA0C010160A2
:101F200070470820C4F20100826811408160816816
:101F300041EA0C01816070470820C4F20100C268C8
:101F40001140C160C16841EA0C01C16070470820BE
:101F5000C4F20100426811404160416841EA0C014D
:101F60004160704740F21000C2F20000006844F681
:101F7000D351C1F26201A0FB01014FF0FF3000EB31
:101F80009110B0F1807F00D3FEE74EF21001CEF247
:101F9000000148604EF62350CEF20000F02202709D
:101FA000002207238A600B6002707047016841F0CD
:101FB0008001016070470000032900F20F81DFE813
:101FC00001F0028D46D4016A21F0010101628169AC
:101FD00021F0030181611168036A19430162016AFA
:101FE00021F002010162D188036A0B43A0F1804114
:101FF000A1F596314FEAB1210729036200F2EE8084
:10200000012303FA01F111F0E10F00F0E780016A0A
:1020100021F0040101629188036A19430162016A97
:1020200021F0080101621189036A1943016250F825
:10203000041F21F480710160518903681943016014
:10204000016821F40071016093890268C3E0016AAC
:1020500042F6044C21F480710162C169C4F2010CA2
:1020600021F00301C1611168036A43EA01210162A1
:10207000016A21F400710162D388016A41EA0321F7
:10208000ACF104039842016240F0A880016A21F497
:10209000806101629188036A43EA01210162016A59
:1020A00021F4006101621189036A43EA012101629E
:1020B000DCF8000020F48050CCF800005089DCF8F7
:1020C000001041EA0010CCF80000DCF8000020F419
:1020D0000050CCF80000908902016DE0016A21F007
:1020E00010010162816921F4407181611168036A04
:1020F00043EA01110162016A21F020010162D188E5
:10210000036A43EA011144F20003C4F20103984256
:10211000016255D042F60041C4F2010188425DD10E
:10212000016A21F0400101629188036A43EA0111CA
:102130000162016A21F0800101621189036A43EAA8
:102140000111016242F60440C4F20100016821F469
:10215000806101605189036843EA8101016001687F
:1021600021F400610160918933E0016A42F6044C78
:1021700021F480510162C169C4F2010C21F4407163
:10218000C1611168036A43EA01310162016A21F405
:1021900000510162D388016A41EA0331ACF10403C2
:1021A0009842016218BF7047DCF8000020F48040BC
:1021B000CCF8000050898201DCF8003060460AE06B
:1021C00044F20400C4F20100016821F4806101605E
:1021D000518903688A0042EA0301016070470000E8
:1021E000032988BF7047DFE801F0020E050B50F8A5
:1021F000181F01E050F81C1F21F07001016008E079
:1022000050F81C1F01E050F8181F21F4E0411202A1
:1022100001600168114301607047000003299CBF01
:1022200000EB810042637047032988BF7047DFE8F5
:1022300001F0020E050B50F8181F01E050F81C1FAA
:1022400021F00801016008E050F81C1F01E050F87F
:10225000181F21F40061120201600168114301603E
:10226000704700002DE9F04F89B040F20B60FFF796
:10227000A9FB4FF4E060FFF7A5FB4FF4E160FFF727
:10228000A1FB42F60046C4F20106304600F090F889
:102290004FF0804000F08CF8A6F58634204600F020
:1022A00087F80DF104084FF0020900254FF47A7AFF
:1022B00030464146CDF804900295CDF80CA08DF83B
:1022C000105000F0D3F804200DF1140BADF81800F5
:1022D000304600215A460595CDF81E50CDF81A50CB
:1022E000FFF76AFE304600210022FFF797FF3046D5
:1022F00000216022FFF774FF304600210022FFF723
:1023000093FF30460121012700F02EF93046FFF7F8
:102310004DFE304600F0A4F820464146CDE9019537
:10232000CDF80CA08DF8105000F0A0F82046002148
:102330005A46ADF81A500597FFF73EFE4FF0804021
:1023400000210022FFF76AFF204600216022FFF7EC
:1023500047FF204600210022FFF766FF2046FFF7D7
:1023600025FE204600F07CF841F26F70CDE90105B2
:1023700040F25D2003904FF0804041468DF81050B0
:1023800000F074F84FF08040012100F0D9F80F20E0
:1023900001210122FFF7F6F84FF08040FFF706FE1B
:1023A0004FF0804000F05CF809B0BDE8F08F00000D
:1023B00010B542F6FF31C4F20101884214DD44F247
:1023C000FF31C4F20101884220DC42F60041C4F230
:1023D000010188422AD044F20001C4F2010188427E
:1023E00037D14FF444742CE0B0F1804F21D040F24B
:1023F0000041C4F2000188421ED042F20001C4F242
:102400000001884225D14FF481641AE044F2004172
:10241000C4F20101884212D044F60001C4F2010165
:10242000884218BF10BD40F212340AE040F20B346B
:1024300007E04FF4806404E040F2014401E040F220
:1024400011342046FFF7DEFA2046BDE81040FFF7C2
:10245000C9BA10BD016821F0010101607047000098
:10246000016841F001010160704700000A8842F6EE
:10247000004CB0F1804FC4F2010C826218BF60457D
:102480002ED1036823F0700303604B8802681A435F
:1024900002608A8803681A43026042F6FF338A6842
:1024A000C4F201039842C2620ADD44F2FF32C4F270
:1024B000010290421BDC604525D044F200021EE080
:1024C000B0F1804F1FD040F20042C4F200029042AF
:1024D00019D042F20002C4F20002904213D02AE066
:1024E00040F20043C4F200039842CAD0D5E744F654
:1024F0000002C4F20102904205D044F20042C4F24C
:102500000102904217D1026822F440720260CA8828
:1025100003681343A0F18042A2F596324FEAB2223B
:10252000072A036007D8012303FA02F212F0E10F31
:102530001CBF097B0163416941F0010141617047A2
:10254000C2681143C1607047C94301617047000010
:10255000C26800690A40084018BF0120002A18BF5D
:102560000122104070470000426C012922F4004211
:1025700008BF02F50042426470470000B0B504464F
:1025800043F60000C4F2010084420D4607D044F235
:102590000040C4F20000844205D1022000E0062081
:1025A000FFF744F800E000202168090406D400EB9E
:1025B0005500B0FBF5F080B2E060B0BD400000EB2C
:1025C0005500B0FBF5F04FF6F0710140C0F342004A
:1025D0000844E060B0BD00006FF35F218162704786
:1025E00010B543F60001C4F20101884209D044F25B
:1025F0000041C4F20001884218BF10BD40F21144EE
:1026000001E040F20E342046FFF7FCF92046BDE819
:102610001040FFF7E7B90000016841F001010160D7
:1026200070470000C1F38912105801F01F01C84023
:1026300000F0010070470000026822F0040202600E
:102640000268114301607047026822F008020260CC
:1026500002681143016070470FB4054B10B503A920
:10266000044A029800F0DAF810BC5DF814FB000090
:102670007D0D00080000002002E008C8121F08C1FC
:10268000002AFAD170477047002001E001C1121FF3
:10269000002AFBD1704700002DE9FF5F82B00021C6
:1026A000DDE90430020DDDF840B0034318D044F6F4
:1026B0001050A2F2FF3242431514119801281FD086
:1026C000A5EB0B00401C5FEA000A4FF000064E4FDE
:1026D000DFF83891B046504615D5CAF1000413E032
:1026E000119801244AA3012801D16FEA0B01029835
:1026F000119AC0E90031C0E9024206B0BDE8F09F7E
:10270000CBF10000DFE704460021404A491842EBC4
:102710000450CDE9001012E0E00707D032463B46F6
:1027200040464946FDF767FE8046894632463B46AD
:1027300010461946FDF75FFE06460F466410002C52
:10274000EAD1DDE90401DDE90023BAF1000F06DA80
:10275000FDF751FE42464B46FDF74DFE05E0FDF705
:10276000BCFE42464B46FDF7B8FE04460E4600222C
:10277000284BFDF739FF03D84FF0FF30014607E043
:102780000022254B20463146FDF78EFDFDF714FF54
:10279000102409E0002C0ADB0A220023FDF753FD78
:1027A000039B30321A55641E50EA0102F2D1641CB8
:1027B000039AC4F111031444119A012A03D001228F
:1027C00008430DD10AE0084304D000204FF0110B5C
:1027D000119072E7A3EB0B056D1E0DE05B4504DD68
:1027E0004FF0000205F1010504E003DA4FF00002AA
:1027F000A5F10105002AECD002981199C0E9023137
:10280000C0E9004579E70000000014400000F03FF7
:10281000300000000000F0430000E03F2DE9FF4FD2
:1028200095B09B468946064600250FE2252877D1BC
:1028300000242746F84A0121059400E0044316F8D5
:10284000013F203B01FA03F01042F7D130782A28EB
:1028500011D06FF02F033078A0F13002092A16D87A
:10286000059A44F0020402EB820203EB4202104498
:10287000761C0590EFE759F8042B0592002A03DA3D
:10288000504244F40054059044F00204761C307821
:102890002E2816D116F8010F44F004042A280DD072
:1028A0006FF02F023078A0F13003092B09D807EB25
:1028B000870302EB4303C718761CF3E759F8047B40
:1028C000761C30786C280FD006DC4C2817D068288E
:1028D0000DD06A2814D104E0742810D07A280FD1C2
:1028E0000DE044F400140AE044F4801401E044F4E0
:1028F00040147278824202D104F58014761C761C52
:10290000307866280BD013DC582877D009DC0028F3
:1029100075D04528F6D04628F4D047281AD19DE135
:1029200018E0632835D0642879D0652812D195E164
:10293000702873D008DC6728F1D069286FD06E2822
:102940000DD06F2806D1B5E073282CD0752875D02E
:10295000782874D05A46179990476D1C75E1C4F3D6
:102960000250022809D003280DD0D9F800100428FD
:102970000DD00D6009F1040967E1D9F80010EA17DC
:10298000C1E90052F6E7D9F800100D80F2E70D70AA
:10299000F0E719F8041B8DF8001000208DF80100F5
:1029A000EA46012003E059F804AB4FF0FF3061071D
:1029B0004FF0000102D40DE008F101018846B94250
:1029C0000FDA8045F8DB1AF808100029F4D108E086
:1029D00008F1010188468142FADB1AF80810002943
:1029E000F6D105985B46A0EB080721463846179AB2
:1029F00000F094FA284400EB080507E04DE029E1D7
:102A00000DE01AF8010B5A4617999047B8F10108E2
:102A1000F7D25B4621463846179A13E142E00A2274
:102A20000092C4F302524FF0000A022A08D059F86B
:102A300004CB032A4FEAEC710AD00DE029E02AE02A
:102A400009F1070121F00702F2E802C1914609E00D
:102A50000FFA8CFC4FEAEC71042A03D14FFA8CFC7C
:102A60004FEAEC71002907DA0A460021DCF1000C7C
:102A700061EB02012D2202E0220504D52B228DF804
:102A80000420012203E0E20701D02022F7E790466C
:102A900059E00A2102E010220DE010214FF0000A57
:102AA00000910BE010224FF0000A44F004040827C4
:102AB000009203E008224FF0000A0092C4F3025291
:102AC000022A05D059F804CB0021032A08D009E0D6
:102AD00009F1070121F00702F2E802C1914605E081
:102AE0001FFA8CFC042A01D10CF0FF0C4FF00008F7
:102AF000220728D5702806D0009B83F0100353EAE4
:102B00000A0305D00EE040228DF80420012208E0DF
:102B10005CEA010206D030228DF804208DF8050011
:102B200002229046009B83F0080353EA0A030AD16D
:102B30005CEA010201D1620705D530228DF804203C
:102B40004FF001087F1E582804D034A003900EA82F
:102B500002900DE036A0F9E753466046009AFDF773
:102B600072FB84460398825C0298401E02900270B9
:102B70005CEA0100F0D1029806A9081A00F1200AC7
:102B8000600702D524F4803400E00127574502DDB8
:102B9000A7EB0A0000E0002000EB0A010090059876
:102BA0004144401A0590E00306D45B462146179A3B
:102BB000059800F0B3F90544002706E001A85A463D
:102BC000C05D179990476D1C7F1C4745F6DBE003FD
:102BD0000CD55B462146179A059800F09FF90544ED
:102BE00004E030205A46179990476D1C0099481E02
:102BF00000900029F5DC08E0029802995A46007816
:102C0000491C0291179990476D1CBAF10001AAF175
:102C1000010AF1DC65E1000009280100303132339E
:102C20003435363738396162636465660000000008
:102C300030313233343536373839414243444546F2
:102C40000000000000F058F90544761C3078002898
:102C50007FF4ECAD19B02846BDE8F08F620700D4D0
:102C6000062709F1070222F0070CFCE80223E146DF
:102C700003F000485FEA080C02D00FF2702C0DE060
:102C80005FEA045C02D50FF2682C07E05FEAC47CBF
:102C900002D00FF2602C01E0AFF2700C4FF0FF3861
:102CA00023F00043CDF850C065280CD006DC452841
:102CB00009D046281DD047283DD13DE0662818D0D0
:102CC00067287ED138E00021112F01DB112000E0C0
:102CD000781CCDE9000106A90EA8FFF7DDFCDDE9AF
:102CE0000F010E9A03910021009207F1010A04914D
:102CF0004DE04FF000400097CDE9011006A90EA865
:102D0000FFF7CAFCDDE90F0203920E9B1199002226
:102D1000DDF80CA00093049211B9791C00EB010AB4
:102D2000B7EB0A0004D4C0F1FF3007F1010A0490A8
:102D3000AAEB0700019044E0012F00DA01270021EF
:102D4000112F01DD112000E03846CDE9000106A970
:102D50000EA8FFF7A1FCDDE90F010E9A03910021F7
:102D600004910092BA4621070CD40399514500DA28
:102D70008A46BAF1010F05DD009AAAF10101515C02
:102D8000302908D0B84202DA10F1040F06DA012126
:102D9000CDE9011015E0AAF10101E9E7002805DC01
:102DA000049901440491AAEB000102E0411C514541
:102DB00000DD8A460499401A401C01904FF0004003
:102DC0000290200704D40198504501DBCDF804801F
:102DD00000208DF84F0002980DF14F07B0F1004F21
:102DE00025D02B200E9002984FF0020800280CDA14
:102DF000404202902D200E9007E00A210298FDF734
:102E00000CFA3031029007F8011DB8F10001A8F169
:102E10000108F2DC02980028EFD1791E0E980870A4
:102E2000307800F0200040F0450007F8020D12A8AD
:102E3000C01B00F107081498007800B1012000EBD6
:102E40000A01019801EBE07105984144401A401EC7
:102E50000590E00306D45B462146179A059800F0DA
:102E60005DF805441498007818B15A4617999047B0
:102E70006D1CE00324D55B462146179A059800F0A7
:102E80004DF805441CE00498002807DBDDE9030148
:102E9000884203DD0098405C179901E017993020C3
:102EA0005A469047049805F10105401C049001988A
:102EB000401E019004D12E205A46179990476D1C50
:102EC000BAF10001AAF1010ADDDC05E017F8010BF7
:102ED0005A46179990476D1CB8F10001A8F10108F6
:102EE000F4DC5B462146179A0598ABE62D000000FE
:102EF0002B000000200000002DE9F04104460025D1
:102F00001E461746880404D405E039462020B04701
:102F10006D1C641EF9D52846BDE8F0812DE9F0410D
:102F2000044600251E469046C80301D5302700E020
:102F30002027880404D505E041463846B0476D1C7B
:102F4000641EF9D52846BDE8F08100000149FDF76F
:102F500015BF000000000020000000000102030473
:102F60000000004800000048400000002000000071
:102F7000902F000800000020600000007826000864
:102F8000F02F0008600000201005000088260008CF
:102F900000000000778800100200080000221000E6
:102FA00000A24A040000803FA25C33C0DEF027404C
:102FB000951752BF866BE538A510AC39A510AC3912
:102FC000866BE538E80300000000803FA95EFDBF86
:102FD00005CB7A3F0000000098235B389823DB384C
:102FE00098235B3800000000F4010000000000009E
:04000005080001519D
:00000001FF
