:020000040800F2
:100000009004002069010008B10800088906000872
:10001000AD08000809060008210B000800000000D8
:10002000000000000000000000000000DF080008E1
:100030000D06000800000000DD080008E1080008C7
:100040008301000883010008830100088301000880
:10005000830100080F0600081106000815060008B5
:100060008301000883010008830100088301000860
:10007000830100088301000883010008E90A0008E1
:1000800083010008830100080000000083010008CC
:100090008301000883010008830100089506000819
:1000A0008301000883010008830100088301000820
:1000B0008301000800000000830100080000000028
:1000C0008D06000800000000830100080000000009
:1000D0000000000000000000000000000000000020
:1000E0000000000000000000830100080000000084
:1000F0000000000000000000000000000000000000
:100100008301000800000000000000000000000063
:1001100000000000000000000000000000000000DF
:1001200000000000000000000000000000000000CF
:1001300000000000000000000000000000000000BF
:100140000000000000000000000000008301000823
:10015000DFF810D000F036FA00480047951200088A
:10016000AFF300809004002006488047064800470F
:10017000FEE7FEE7FEE7FEE7FEE7FEE7FEE7FEE757
:10018000FEE7FEE7E9080008510100082DE9FE4FEF
:10019000804681EA0300C00F0C46009021F0004128
:1001A00023F00045B8EB0200A94105D240462146A4
:1001B00090461C460B46024623F00040104347D0B1
:1001C000270DC7F30A00C3F30A510290401A0190A9
:1001D00040286BDAC3F3130040F4801B009892466A
:1001E00020B10023D2EB030A63EB0B0B01985946B5
:1001F000C0F14002504600F02FF906460D46504629
:100200005946019A00F037F910EB080061410024CB
:1002100087EA115284EAE7731A4340D0009A62B326
:10022000019A012A4FEA075215DC001B61EB02011B
:100230004FF0004202EA0752CDE90042001C41F5AE
:10024000801132462B4600F06EF903B0BDE8F08F06
:1002500040462146F9E7001B61EB0201001C41F515
:10026000801300185B412018A2F5001747EB03012B
:1002700040EAD570B6196D4111E06D084FEA3606B7
:1002800045EAC0754FEA0752001B61EB0201001CF2
:1002900041F5801149084FEA3000001951413246BA
:1002A0002B4603B0BDE8F04F00F02EB900980122B4
:1002B00040000023D0EB020263EBE073009821467C
:1002C0004FEAE074B8EB000061EB0401E9E783F06A
:1002D00000435BE781F0004158E72DE9FE4F81EADA
:1002E000030404F0004421F0004100944FF0000B9F
:1002F00023F0004350EA01045ED052EA03045BD0CD
:10030000C3F30A54C1F30A552C44A4F2F334019404
:10031000A0FB0254C1F3130141F48011C3F3130392
:1003200043F4801301FB024400FB034E840A970A46
:1003300044EA815447EA8357A4FB076802958D0A73
:1003400005FB07854FEA932C04FB0C542705029DFF
:100350004FEA065847EA1637B5EB08056EEB070C6F
:10036000870E920E47EA811742EA8312A7FB020129
:10037000B6EB0B0164EB00042B0D43EA0C335E1863
:1003800044EB1C50DA465146E7FB0201C5F3130467
:100390004FEA0B3343EA14534FEA0432019C43EA19
:1003A0000603A4F10C040294009CCDE900B400F013
:1003B000BAF803B0BDE8F08F00200146F9E7C10F9D
:1003C00080EAE0700844CA079623002100F06EB866
:1003D00000F0004230F000400AD0C10D01F560711C
:1003E000C0F3160042EA0151C208400711437047AA
:1003F00000200146704701F0004330B421F0004175
:1004000050EA010206D00A0DA2F56072C1F3130191
:10041000002A02DC30BC00207047440F44EAC104CB
:10042000C100E01830BC00EBC25000F036B800004C
:10043000002801DBC0F10040002901DBC1F10041CF
:1004400081427047002801DBC0F10040002901DB38
:10045000C1F1004188427047202A04DB203A00FAAB
:1004600002F1002070479140C2F1200320FA03F30B
:10047000194390407047202A06DBCB17203A41FAF7
:1004800002F043EAE07306E041FA02F3D040C2F121
:10049000200291400843194670470029A8BF7047C1
:1004A000401C490008BF20F00100704710B4B0FAAA
:1004B00080FC00FA0CF050EA010404BF10BC704745
:1004C00049B1CCF1200421FA04F411FA0CF118BF5F
:1004D000012121430843A3EB0C01CB1D4FEA00612E
:1004E0004FEA102042BF002010BC704700EBC35001
:1004F00010440029A4BF10BC7047401C490008BF2D
:1005000020F0010010BC704710B5141E73F10004F8
:1005100008DA401C41F1000192185B411A4301D1F5
:1005200020F0010010BD2DE9F04D92469B4611B11F
:10053000B1FA81F202E0B0FA80F220329046FFF781
:100540008BFF04460F4640EA0A0041EA0B0153467E
:100550005A46084313D0114653EA010019D0C8F196
:100560004002504600F040F805460E4650465946B7
:100570004246FFF771FF084305D0012004E0204602
:100580003946BDE8F08D0020054346EAE0762C436D
:1005900037430A986305E40AA0EB08000022FD0A2D
:1005A00044EA47540A3002D500200146E9E7010534
:1005B00010196941DDE9084500196941BDE8F04DB0
:1005C000A2E70000064C074D06E0E06840F001039A
:1005D00094E8070098471034AC42F6D3FFF7BCFD0F
:1005E0003C2300085C230008202A04DB203A21FA7F
:1005F00002F00021704721FA02F3D040C2F120023C
:10060000914008431946704700BFFEE770477047A6
:100610007047000010B5402000F00EFB58B340209A
:1006200000F004FB144800F072FD4FF480611248A2
:1006300000F04AFC4FF484710F4800F09DFD4FF428
:1006400085710D4800F098FD40F209110A4800F04C
:1006500093FD00BF40F20161074800F071FD0028E2
:10066000F8D1054800F002FE0448054908606FF023
:1006700001000449086010BD005400401C00002027
:10068000340000206000002000BFFEE710B500F03D
:1006900005F810BD10B500F061F810BD10B5274980
:1006A000274800F08DFD18B12449254800F072FD5F
:1006B0002449234800F084FD18B12249204800F065
:1006C00069FD21491E4800F07BFD18B11E491C48F8
:1006D00000F060FD1D491A4800F072FD18B11B4979
:1006E000174800F057FD1A49154800F069FD18B188
:1006F0001749134800F04EFD1649114800F060FDFF
:1007000018B114490E4800F045FD13490C4800F09B
:1007100057FD18B110490A4800F03CFD4FF48471B0
:10072000074800F01CFD4FF48571054800F017FDE7
:1007300040F20911024800F012FD10BD08010A053F
:100740000054004008010F0508010E0508010B05C3
:10075000080109050801080508010C0510B54B49F9
:100760004B4800F02DFD30B14A483021026848481E
:1007700000F054FD88E04849454800F021FDA0B351
:1007800044480068012815D144480088012803D056
:1007900042480088022808D100213D4800F094FB1F
:1007A0003D493B4800F0F6FC6EE03B49384800F01C
:1007B000F1FC69E037480068801C002864D13649A4
:1007C000334800F0E7FCA721314800F047FC00BFA8
:1007D00033492F4800F0F4FC0028F9D001202D49BE
:1007E00008602B4800F042FD4EE0FFE72D49284805
:1007F00000F0E6FC002847D028480088002843DDA8
:100800002648008803280AD100BF2549204800F067
:10081000D7FC0028F9D000211D4800F055FB1C48EA
:1008200000F018FC2049096808701F480068401C47
:100830001D49086019480088401E1849088008466C
:10084000008808BB6FF0010012490860104800F0F2
:1008500012FD4FF480610E4800F036FB00210C4879
:1008600000F03AFB4FF48471094800F085FC4FF426
:100870008571074800F080FC40F20911044800F03F
:100880007BFC07200549088010BD00000901000518
:1008900000540040600000200901010538000020DC
:1008A00009010205090106053400002000BFFEE72A
:1008B0007047000010B5002807DA0A07140E054A31
:1008C00000F00F031B1FD45403E00A07130E024A63
:1008D000135410BD18ED00E000E400E070477047CD
:1008E00010B500F039F910BD08B57648C06900F0C0
:1008F0000600062871D07348C069C0F34030002854
:100900006BD071486F494860704848606E48886095
:100910006E4888600846006940F02000086108467B
:10092000006940F04000086100BF6648C06800F000
:1009300001000028F9D16348006920F020006149D6
:1009400008610846006940F0100008610846C06967
:1009500000F0060018B9A5205D49088008E0594854
:10096000C06900F00600022802D1BB205849088067
:100970005448C069000A00F0DF005549891C08800E
:100980005048C069C0F30740891C08804D48C069C1
:10099000000E891C08804B48006AC0B2891C088080
:1009A0004848006AC0F30720891C088000BF4548FA
:1009B000C06800F001000028F9D14248006920F029
:1009C0001000404908610846006920F40070086181
:1009D0000846006940F0800008613E48006840F029
:1009E00001003C49086000BF3A48006800F002007E
:1009F0000028F9D000BF3748406840F080003549F2
:100A000048600020009002E00098401C0090009890
:100A10005028F9D32F48406840F090002D49486095
:100A20000020009002E00098401C009000985028A0
:100A3000F9D300BF2748406820F0030025494860EB
:100A40000846006824490840224908600846406872
:100A5000224908401F49486008464068204908402C
:100A60001C4948600846C06A1E4908401949C862C6
:100A70000846006B40F20311884316490863084694
:100A8000006B20F4803008630846006B20F00040C3
:100A900008630846406B20F0010048630D48C030F1
:100AA000006820F48030C1F8C00000208860094947
:100AB000CC31086001F002F900214FF0006000F035
:100AC000B1FC08BD0020024023016745AB89EFCD92
:100AD00000F8FF1F00100240FFFFF2FE0C00FF08AD
:100AE000FFFFC277F0FFFF3F10B50121880701F03B
:100AF0000CFC012810D109480068401C0749086017
:100B000008460068A02803DB4FF0804001F096FB08
:100B10000121880701F0F6FB10BD00000000002055
:100B200000BFFEE702E008C8121F08C1002AFAD180
:100B300070477047002001E001C1121F002AFBD15D
:100B4000704700000349086000BF02490968002996
:100B5000FBD17047540000200448006820B10348CE
:100B60000068401E014908607047000054000020E2
:100B700010B52D4B1B6883432B4C2360231D1B6832
:100B80008343241D2360231D1B688343241D23608E
:100B9000231D1B688343241D236011B101290ED13D
:100BA00005E0214B1B6803431F4C236008E01E4BEC
:100BB0001B1D1B6803431C4C241D236000E000BF69
:100BC00000BF32B1012A11D0022A1CD0032A27D13A
:100BD00027E0154B08331B680343134C083423608C
:100BE000231D1B688343241D23601BE00E4B083329
:100BF0001B6883430C4C08342360231D1B6803438C
:100C0000241D23600EE0084B08331B680343064C89
:100C100008342360231D1B680343241D236001E067
:100C200000BF00BF00BF10BD0004014001490860C3
:100C3000704700001404014001460748006800EABC
:100C4000010205481438006800EA010312B10BB133
:100C5000012070470020FCE7140401404AF6AA2056
:100C600001490860704700000030004070B504463C
:100C70000D461646184931F8140000F0FFFD4FF4F8
:100C8000C06000F0FBFD154951F82430144951F8BB
:100C900024000122002100F0B2F8012D1BD1002216
:100CA0000221072000F05EFB01220221072000F054
:100CB00059FB0C4A115D0C4A105D00F04BFF0B49CB
:100CC00051F8240032460021FFF752FF074951F83E
:100CD0002400FFF7ABFF70BD8000002078000020EB
:100CE000700000208E0000208C0000208400002076
:100CF000F0B503461C6A5D6A00200DE001268640BF
:100D000016403EB187000F26BE40B443860001FA6C
:100D100006F63443461CB0B20828EFD3082011E091
:100D20000126864016405EB1A0F10806B7000F26E6
:100D3000BE40B543A0F10806B60001FA06F63543F9
:100D4000461CB0B21028EBD31C625D62F0BD10B53A
:100D50008023002202214FF0904000F050F88023C1
:100D6000032200214FF0904000F070F88022022111
:100D70004FF09040FFF7BCFF1023002202214FF0FC
:100D8000904000F03CF81023032200214FF09040E7
:100D900000F05CF8102204214FF09040FFF7A8FF0C
:100DA0004FF4007204214FF09040FFF7A1FF4FF481
:100DB000806204214FF09040FFF79AFF4FF40073D8
:100DC000012202214FF0904000F019F84FF4007317
:100DD000032201214FF0904000F038F84FF4806377
:100DE000012202214FF0904000F009F84FF4806397
:100DF000032201214FF0904000F028F810BDF0B51B
:100E000004460D4616462168E268002019E00127D5
:100E100087401F409FB14FEA400C032707FA0CF7A9
:100E2000B943470005FA07F739434FEA400C032757
:100E300007FA0CF7BA43470006FA07F73A43471C8C
:100E4000B8B21028E3D32160E260F0BDF0B50446EB
:100E50000E46012E03D167681F43676002E0676892
:100E60009F436760A1684FF6FF77BA4216D1E56BE2
:100E700000200EE0012787401F4047B14FEA400C99
:100E8000032707FA0CF73943012787403D43471CE6
:100E9000B8B21028EED3A160E56314E000200FE0A3
:100EA000012787401F404FB14FEA400C032707FA44
:100EB0000CF7B943470002FA07F73943471CB8B2A9
:100EC0001028EDD3A160F0BD0A460021016821F48D
:100ED00080611143016070470A460021016821F4D6
:100EE00000611143016070472DE9F05F04460E4632
:100EF0009246022000F0ACFA07464648B7FBF0F8ED
:100F0000B8F13F0F01D34FF03F08D4F804B02BF0F5
:100F10003F0B4BEA080BC4F804B03F4886421ED88A
:100F20003C48B7FBF0F000F10109B9F13F0F02D3E3
:100F30003F20206207E0B9F1020F02D802202062B0
:100F400001E0C4F820907000B7FBF0F5042D00D24A
:100F50000425E069C5F30B010843E06158E02F4820
:100F600086422CD84FF4967008FB00F04FF47A714B
:100F7000B0FBF1F0401C2062BAF1000F08D106EB83
:100F80004600B7FBF0F5E06920F48040E06109E03D
:100F900006EBC60000EB0610B7FBF0F5E06940F485
:100FA0008040E061C5F30B0008B945F00105E06938
:100FB00040F40040E061E0692843E06128E0C8EBCC
:100FC0000810C0004FF47A71B0FBF1F0401C2062B1
:100FD000BAF1000F08D106EB4600B7FBF0F5E06967
:100FE00020F48040E06109E006EBC60000EB06104B
:100FF000B7FBF0F5E06940F48040E061E06940F45F
:101000000040E061E0692843E0610120C4F89000FD
:10101000BDE8F09F40420F00A0860100801A060044
:1010200010B5002209490A48FFF75EFF302300226D
:101030001146074800F0FCF8054800F068F84FF446
:1010400080610348FFF740FF10BD0000A08601004B
:101050000054004001460869C0B27047CAB202613C
:10106000704770B504460E46154600BF40F2016158
:10107000204600F065F80028F8D1204600F0F6F888
:1010800000BF4FF4A061204600F05AF80028F8D0C5
:101090006FF001023021204600F0C0F800BF40F29E
:1010A0000151204600F04CF80028F8D040F20151E0
:1010B000204600F031F800BF40F20751204600F012
:1010C0003FF80028F8D029462046FFF7C7FF00BFA9
:1010D00040F20751204600F033F80028F8D031469E
:1010E0002046FFF7BBFF00BF40F20751204600F04B
:1010F00027F80028F8D0204600F0BDF800BF20688F
:1011000000F400700028FAD1FFF7A8FD70BD016857
:1011100041F001010160704710B540F20152914267
:1011200002D1426982690AE000EB9112126801F073
:101130001F040123A3409A4300EB91131A6010BDD2
:1011400010B5024602EB9110006801F01F04012364
:10115000A340184008B1012010BD0020FCE710B5E5
:1011600000EB9112126801F01F040123A3409A437F
:1011700000EB91131A6010BD10B500EB91121268CC
:1011800001F01F040123A3401A4300EB91131A60DE
:1011900010BD000010B5094A914202D1426982692E
:1011A0000AE000EB91521268C1F304440123A3400A
:1011B0009A4300EB91531A6010BD0000090101052C
:1011C000F0B5024600230024506800F48065C1F3A6
:1011D0008910105801F01F070126BE4000EA0603DF
:1011E00002EB91500068C1F304470126BE4000EABB
:1011F00006040848814202D00748814204D113B155
:101200000DB1012300E0002314B10BB10120F0BDAA
:101210000020FCE7090106050901070512F1020F8C
:1012200002D121F0010101E041F0010101617047AB
:1012300030B50C460021016821F002012143016014
:10124000C3F3090342EA0305856030BD10B54FF4CE
:10125000C06000F0DDF802220021172000F082F8C3
:1012600001220021202000F07DF810BD016841F42A
:10127000807101607047016841F40071016070473E
:1012800010B54FF4106000F04DFA4FF4106000F00C
:1012900059FA10BD00F02AFAFFF759FDFFF7D6FF03
:1012A000FFF7BEFEFFF7ECFF00F018FB00F0AAFE10
:1012B00000F008FD072023490880234823490860DF
:1012C000012211460020FFF7D1FC40F61D1000F06E
:1012D00017FA10B100F0B2F813E01D4800210268BF
:1012E0001C4800F04EFE4FF4FA70FFF72BFC1A4832
:1012F00000210268174800F044FE4FF0804000F0E3
:101300009DFF134800210268144800F03AFE18E0DF
:1013100000F022FB12480068A02812DB00201049D0
:1013200008604FF0804000F089FF0B480021026800
:10133000084800F026FE064800210268074800F031
:1013400020FEE5E7380000201C00002034000020CB
:1013500024000020002C01402C0000200020004030
:10136000000000202DE9F04103460D4616460024FA
:101370000027A0462448006800F4E060B0F5A06FA4
:1013800015D006DCB0F5407F18D0B0F5806F19D1CC
:1013900010E0B0F5C06F06D0B0F5E06F12D10027B5
:1013A0004FF0040815E001274FF0030811E0022771
:1013B000B8460EE003274FF001080AE004274FF07B
:1013C000000806E04FF4A06000F022F80227B846BB
:1013D00000BF00BFC7F1040005FA00F4C8F1040122
:1013E0000F20C8403040044324010848C45403F08F
:1013F0001F01012088405911890001F1E021C1F845
:101400000001BDE8F08100000CED00E000E400E028
:1014100002490143024A1160704700000000FA05CA
:101420000CED00E0034A0A400243034B1A60BFF38D
:101430004F8F704780FFFF1F08ED00E00348406AB0
:1014400040F080700149486270470000001002407F
:101450002DE9F04F92B084460020119010900024A6
:101460000F90002500210E9000230D900C900B9002
:101470000022002600270A900990089080468146A5
:1014800090A090E8004CC068CDE905BECDF810A052
:1014900007900FF2342ADAE9000ACDE9020A0FF2C6
:1014A000282ADAE9000ACDE9000A8A484068C0F330
:1014B00081001190119820B1012804D0022847D151
:1014C00003E0854D46E0844D44E082484068C0F327
:1014D000834280484068C0F3C0667E48C06AC70F38
:1014E0000EB907B9921C012E01D107B9113216B9F4
:1014F000012F00D12132012E02D1012F00D1313232
:1015000074484068C0F300400A907248C06AC0F353
:10151000807009900A98B8B16E48C06A00F00F0058
:10152000401C0890099838B9DFF8ACA10898BAFBBC
:10153000F0F000FB02F50AE0DFF8A0A10898BAFB82
:10154000F0F000FB02F502E0654802FB00F501E067
:10155000614D00BF00BF5F484068C0F3031804A896
:1015600010F8089025FA09F15A484068C0F302289B
:1015700002A810F8089021FA09F00E90554840682A
:10158000C0F3C2281DF8089021FA09F3BCF1070F37
:1015900075D2DFE80CF00406080B0D5D6D000F95A9
:1015A0008BE00F9189E00E980F9086E00F9384E016
:1015B0004848006B00F48070B0F5807F0CD045483F
:1015C000006B00F48030B0F5803F02D045480D90AC
:1015D0003BE045480D9038E03E484068C0F381301C
:1015E00010903C48006BC40F109830B101280DD00A
:1015F000022814D0032826D11CE014B958080D90F5
:1016000003E00320B1FBF0F00D901DE014B9980841
:101610000D9003E00520B1FBF0F00D9014E024B92B
:101620000620B3FBF0F00D9003E00720B1FBF0F0D3
:101630000D9009E014B9D8080D9003E00920B1FB22
:10164000F0F00D9000E000BF00BF0D980F9034E067
:101650002048006B00F04000402803D048F2120000
:101660000C9002E04FF400400C900C980F9024E096
:101670001848006B00F0030010B90B9319E01BE051
:101680001448006B00F00300012801D10B9510E015
:101690001048006B00F00300022802D180030B9079
:1016A00007E00C48006B00F00300032801D10A4852
:1016B0000B900B980F9000E000BF00BF0F9812B086
:1016C000BDE8F08F000000000000000001020304EC
:1016D000060708090010024000127A00006CDC02C4
:1016E00000093D00809FD500003FAB0110B540F2DE
:1016F000115000F0C3F840F2157000F0BFF810BDB3
:101700000146074A02EB9110006801F01F03012215
:101710009A40104008B1012070470020FCE700000B
:1017200000100240064A02EB9011096800F01F0306
:1017300001229A401143024B03EB90121160704753
:1017400000100240F0B50646002400270025B6F53B
:10175000006F22D005DC9EB3102E0ED0182E76D14D
:1017600076E0B6F5106F60D0B6F5506F39D0A6F5BB
:101770004050103800287BD145E004E01120FFF7ED
:10178000BFFF0546641C15B9B4F5006FF6D11120F2
:10179000FFF7B6FF00B101276BE005E040F601005E
:1017A000FFF7AEFF0546641C1DB96FF07C40844214
:1017B000F4D140F60100FFF7A3FF00B1012758E084
:1017C000FFE704E00120FFF79BFF0546641C15B905
:1017D000B4F5A06FF6D10120FFF792FF00B1012709
:1017E00047E005E040F60150FFF78AFF0546641C1C
:1017F00015B921488442F5D140F60150FFF780FF2A
:1018000000B1012735E005E043F21100FFF778FF52
:101810000546641C15B918488442F5D143F21100FD
:10182000FFF76EFF00B1012723E005E040F601104D
:10183000FFF766FF0546641C15B90F488442F5D1D1
:1018400040F60110FFF75CFF00B1012711E00FE047
:1018500004E01920FFF754FF0546641C15B906483B
:101860008442F6D11920FFF74BFF00B1012700E0B9
:1018700000BF00BF3846F0BDFFFF0F00064A02EB75
:101880009011096800F01F0301229A401143024B96
:1018900003EB90121160704700100240064A02EB01
:1018A0009011096800F01F0301229A409143024BF6
:1018B00003EB90121160704700100240064A02EBE1
:1018C0009011096800F01F0301229A401143024B56
:1018D00003EB9012116070470010024010B51C48D5
:1018E000017820221B48FFF7BCFB194841782322CE
:1018F0001848FFF7B6FB1648817821221548FFF7F4
:10190000B0FB1348C17822221248FFF7AAFB104807
:10191000017925220F48FFF7A4FB0D4841792422C5
:101920000C48FFF79EFB0A48817930220948FFF7EF
:1019300098FB0748C17932220648FFF792FB04481A
:10194000017A33220348FFF78CFBFFF787F910BDBC
:1019500004000020005400402DE9F04F8DB0654890
:1019600000780F287ED16348807900016149497968
:1019700000EB2110604908800846008800F40060F0
:10198000B0F5006F07D10846008800F5704000B23E
:101990005A49088004E05848008800B25749088036
:1019A000574800685749086057480068544908601C
:1019B0005248B0F90000FEF702FD53490860534851
:1019C000006853490860534800685049086050480F
:1019D0000068FEF7FDFC04464F4A504BFEF77DFCC5
:1019E000CDE9080149480068FEF7F2FC04464C4A7C
:1019F0004C4BFEF772FCCDE9040142480068FEF74B
:101A0000E7FC0446484A494BFEF767FC82468B4692
:101A10003B480068FEF7DCFC0646434A444BFEF7B1
:101A20005CFC04460D4638480068FEF7D1FC0646CB
:101A30003D4A3E4BFEF751FC804622462B46FEF7C0
:101A4000A5FB52465B46CDE90001FEF79FFBCDE9C1
:101A50000201DDE90423FEF73AFCCDE90601DDE9E8
:101A6000082300E041E0FEF732FCCDE90A01FEF771
:101A7000C2FC2849086000201E4908702D492548ED
:101A80000068FEF7DFFC13D22B48002102682B48C8
:101A900000F077FA284800210268294800F071FA1E
:101AA0004FF0804000F0CFFB0020264908601CE08A
:101AB000254918480068FEF7BBFC16D2214800688B
:101AC0003C2812DB00201F4908604FF0804000F0E6
:101AD000B5FB1E4800210268184800F052FA1C4865
:101AE00000210268164800F04CFAFFF7B7F80DB075
:101AF000BDE8F08F1C000020140000201A00002018
:101B0000400000203C000020440000204C00002049
:101B100048000020500000205C0D8585CFA2EC3FDE
:101B200075FC10C07A39FEBFFA268AB102ED573F24
:101B300002ED673F0000024328000020002C014016
:101B400000200040000000200000A0C22C00002067
:101B50002400002070B504460B46CD1701EB9575A7
:101B6000AD10A1EB8505AE000F25B540E843CD17BC
:101B700001EB9575AD10A1EB8505AD0004FA05F2FA
:101B8000CD1701EB9575AD1035B1012D0ED0022D9D
:101B900016D0032D28D11DE0154B9B680340144D32
:101BA000AB602B469B681343AB601EE0104BDB68B9
:101BB00003400F4DEB602B46DB681343EB6014E0F2
:101BC0000B4B1B6903400A4D2B612B461B691343CA
:101BD0002B610AE0064B5B690340054D6B612B46A8
:101BE0005B6913436B6100E000BF00BF70BD000084
:101BF00000000140002000212D4A126842F480328A
:101C00002B4B1A6000BF401C294A126802F40031B5
:101C100011B9B0F5006FF6D1254A126802F400320E
:101C200002B97047224A5268214B5A601A465268DC
:101C300042F400525A601A46526842F480625A6076
:101C40001A4652681B4B1A40194B5A601A46D26A00
:101C5000194B1A40164BDA621A46526842F4E812DF
:101C60005A601A46D26ADA621A46D26ADA621A46AA
:101C7000126842F080721A6000BF0D4A126802F0CA
:101C80000072002AF9D00A4A526822F00302084B77
:101C90005A601A46526842F002025A6000BF044A73
:101CA000526802F00802002AF9D000BFB9E700002C
:101CB00000100240FFFFC0F7F0FFFF3F10B5FFF735
:101CC00099FF10BD10B5124800684FF47A71B0FB4F
:101CD000F1F4601EB0F1807F01D301200FE0601E9F
:101CE0004FF0E02148610F214FF0FF30FEF7E2FD99
:101CF00000204FF0E021886107200861002008B132
:101D000000BFFEE70021481EFEF7D4FD10BD000015
:101D100058000020016841F0800101607047000018
:101D200010B531B1012945D002297DD003297CD1DC
:101D3000CBE0036A23F001030362836923F003030A
:101D40008361036A146823430362036A23F0020376
:101D50000362036AD488234303626F4B984208D01E
:101D60006E4B984205D06E4B984202D06D4B984214
:101D70001FD1036A23F004030362036A9488234398
:101D80000362036A23F008030362036A148923438E
:101D90000362436823F48073436043685489234398
:101DA0004360436823F4007343604368948923438A
:101DB0004360AEE0036A23F010030362836923F4F7
:101DC00040738361036A146843EA04130362036A7D
:101DD00023F020030362036AD48843EA04130362F6
:101DE0004D4B984226D1036A23F040030362036AF5
:101DF000948843EA04130362036A23F080030362B6
:101E0000036A148943EA04130362436823F480637A
:101E100043604368548943EA84034360436823F47E
:101E200000634360436801E011E071E0948943EA94
:101E300084034360394B984208D1436823F480639C
:101E400043604368548943EA8403436061E0036A62
:101E500023F480730362C36923F00303C361036A3D
:101E6000146843EA04230362036A23F400730362E1
:101E7000036AD48843EA04230362274B984223D1A0
:101E8000036A23F480630362036A948843EA0423A9
:101E90000362036A23F400630362036A148943EA5A
:101EA00004230362436823F48053436043685489E6
:101EB00043EA04134360436823F4005343604368D8
:101EC000948943EA0413436023E0036A23F48053B4
:101ED0000362C36923F44073C361036A146843EA6D
:101EE00004330362036A23F400530362036AD48851
:101EF00043EA04330362084B984208D1436823F451
:101F0000804343604368548943EA8413436000E09C
:101F100000BF00BF10BD0000002C01400040014088
:101F2000004401400048014031B101290CD0022990
:101F300013D0032922D118E0836923F07003836151
:101F40008369134383611AE0836923F4E043836167
:101F5000836943EA0223836111E0C36923F07003BC
:101F6000C361C3691343C36109E0C36923F4E04358
:101F7000C361C36943EA0223C36100E000BF00BF3D
:101F8000704731B1012906D0022906D0032908D1B2
:101F900005E0426306E0826304E0C26302E002649B
:101FA00000E000BF00BF704731B101290CD0022909
:101FB00013D0032922D118E0836923F00803836139
:101FC0008369134383611AE0836923F400638361A7
:101FD000836943EA0223836111E0C36923F00803A4
:101FE000C361C3691343C36109E0C36923F4006398
:101FF000C361C36943EA0223C36100E000BF00BFBD
:102000007047000000B589B040F20B60FFF736FC66
:102010004FF4E060FFF732FC4FF4E160FFF72EFC75
:10202000534800F0A9F84FF0804000F0A5F851485F
:1020300000F0A2F80220ADF804000020ADF8060080
:10204000ADF808004FF47A7003900020ADF80A0054
:102050008DF8100001A9464800F0FAF8002005901C
:102060000420ADF818000020ADF81A00ADF81C00EF
:10207000ADF81E00ADF8200005AA00213C48FFF78E
:102080004FFE002211463A48FFF77BFF60220021F5
:102090003748FFF749FF002211463548FFF784FF14
:1020A0000121334800F03DF93148FFF733FE304855
:1020B00000F0C9F80220ADF804000020ADF80600D9
:1020C000ADF808004FF47A7003900020ADF80A00D4
:1020D0008DF8100001A9274800F0BAF80020ADF8EB
:1020E0001A000120059005AA00212248FFF718FEDA
:1020F000002211464FF08040FFF743FF602200218D
:102100001C48FFF711FF002211461A48FFF74CFF49
:102110001848FFF7FFFD174800F095F841F26F707F
:10212000ADF804000020ADF80600ADF8080040F25C
:102130005D2003900020ADF80A008DF8100001A981
:102140004FF0804000F084F80121880700F0D6F8B5
:10215000012211460F20FFF705F94FF08040FFF7ED
:10216000D9FD4FF0804000F06EF809B000BD0000CE
:10217000002C01400020004010B504462D49601A93
:102180008C4214D009DCB4F1804F19D02A48204485
:10219000F8B1B0F5E05F49D124E0B0F5A05F2AD0F6
:1021A000B0F5C05F30D0B0F5E05F3FD135E040F230
:1021B0000B30FFF783FB40F20B30FFF76FFB36E08D
:1021C0004FF48060FFF77AFB4FF48060FFF766FB07
:1021D0002DE040F20140FFF771FB40F20140FFF7B4
:1021E0005DFB24E04FF48160FFF768FB4FF48160F2
:1021F000FFF754FB1BE04FF44470FFF75FFB4FF415
:102200004470FFF74BFB12E040F21130FFF756FB32
:1022100040F21130FFF742FB09E040F21230FFF7C5
:102220004DFB40F21230FFF739FB00E000BF00BF6A
:1022300010BD0000002C014000FCFFBF016821F030
:10224000010101607047016841F0010101607047C0
:102250000A888262234A904205D0B0F1804F02D0B2
:10226000214A90420BD1026822F07002026002689B
:102270004B881A43026002688B881A4302608A689E
:10228000C262184A904211D0B0F1804F0ED0164A67
:1022900090420BD0154A904208D0154A904205D082
:1022A000144A904202D0144A904207D1026822F4A4
:1022B000407202600268CB881A430260094A904269
:1022C00008D00B4A904205D00A4A904202D00A4AEE
:1022D000904201D10A7B0263426942F001024261ED
:1022E00070470000002C0140000400400020004026
:1022F000004001400044014000480140C2680A43D8
:10230000C2607047CA43026170470246D06800EA63
:1023100001031069084010B10BB101207047002083
:10232000FCE7012904D1426C42F40042426403E01C
:10233000426C22F400424264704700005C230008B3
:102340000000002090000000240B0008EC2300088F
:102350009000002000040000340B00080000000082
:1023600077883910020008000022100000000000E9
:10237000000000000000000000000000000000005D
:10238000F4010000E803000000000000000000006D
:10239000000000000000000000000000000000003D
:1023A000000000000000000000000000000000002D
:1023B0000000000000A24A0400000000000000002D
:1023C00011070000040000000800000000000048A1
:1023D0000000004840000000200000001105110529
:0C23E00040000000200000000000000190
:04000005080001519D
:00000001FF
