:020000040800F2
:10000000380500206501000805050008D502000834
:1000100001050008410200086D070008000000000B
:100020000000000000000000000000000D050008B6
:10003000450200080000000009050008110500083D
:100040007F0100087F0100087F0100087F01000890
:100050007F010008490200084D0200085102000813
:100060007F0100087F0100087F0100087F01000870
:100070007F0100087F0100087F01000831070008A8
:100080007F0100087F010008000000007F010008D8
:100090007F0100087F0100087F010008DD020008E1
:1000A0007F0100087F0100087F0100087F01000830
:1000B0007F010008000000007F0100080000000030
:1000C000D9020008000000007F01000800000000C5
:1000D0000000000000000000000000000000000020
:1000E00000000000000000007F0100080000000088
:1000F0000000000000000000000000000000000000
:100100007F01000800000000000000000000000067
:1001100000000000000000000000000000000000DF
:1001200000000000000000000000000000000000CF
:1001300000000000000000000000000000000000BF
:100140000000000000000000000000007F01000827
:10015000DFF80CD000F062F800480047BD0E000840
:10016000380500200648804706480047FEE7FEE7BE
:10017000FEE7FEE7FEE7FEE7FEE7FEE7FEE7FEE757
:10018000150500085101000830B5041E71F1000486
:1001900004DB4FF00044404264EB0101141E73F194
:1001A000000405DB1C464FF00043524263EB04039E
:1001B000101A8B4101D2012030BD002030BD30B576
:1001C000041E71F1000404DB4FF00044404264EB74
:1001D0000101141E73F1000405DB1C464FF00043BF
:1001E000524263EB0403101A8B4101D3012030BD4E
:1001F000002030BD00F0004230F000400AD0C10DB8
:1002000001F56071C0F3160042EA0151C2084007CF
:10021000114370470020014670470000064C074D0F
:1002200006E0E06840F0010394E8070098471034C6
:10023000AC42F6D3FFF790FFDC200008FC2000085A
:10024000FEE70000704700007047000070470000A4
:1002500010B5402000F0F6FA002808BF10BD45F2A6
:1002600000444020C4F2000400F0E6FA204600F00A
:1002700085FD20464FF4806100F088FC20464FF455
:10028000847100F0ADFD20464FF4857100F0A8FDAB
:10029000204640F2091100F0A3FD00BF204640F2C5
:1002A000016100F085FD0028F8D1204600F0FAFD3C
:1002B00040F2181040F21011C2F20000C2F2000128
:1002C000016040F25000C2F200006FF001010160D5
:1002D00010BD0000FEE7000000F002B800F066B8B4
:1002E00070B540F2081545F20044C0F20855C4F25A
:1002F000000405F500362046314600F093FD18B1A4
:100300002046314600F078FD05F5E02620463146CE
:1003100000F088FD18B12046314600F06DFD05F56E
:10032000C0262046314600F07DFD18B120463146FA
:1003300000F062FD05F540362046314600F072FDC2
:1003400018B12046314600F057FD05F580362046AD
:10035000314600F067FD18B12046314600F04CFDF3
:100360002046294600F05EFD18B12046294600F0DF
:1003700043FD05F580252046294600F053FD18B1C0
:100380002046294600F038FD20464FF4847100F0E5
:1003900019FD20464FF4857100F014FD204640F20F
:1003A0000911BDE8704000F00DBD000070B545F2C8
:1003B000004440F20915C4F20004C0F20155A5F54D
:1003C0008031204600F02EFD50B140F25000C2F2C4
:1003D0000000026820463021BDE8704000F04CBDAE
:1003E0002046294600F01EFDE0B140F25006C2F260
:1003F00000063068811C6AD0012867D140F24800AD
:10040000C2F200000188012902D00088022803D12D
:100410002046002100F0BAFB20462946BDE8704086
:1004200000F0EABC05F5A021204600F0FBFC002806
:100430004CD040F24806C2F200063088002845D071
:10044000308803280CD105F5803500BF20462946A9
:1004500000F0E8FC0028F9D02046002100F096FBCF
:10046000204600F033FC40F21811C2F200010A6885
:10047000531C0B60107030880138308030880028A1
:1004800018BF70BD40F25000C2F200006FF00101D1
:100490000160204600F00CFD20464FF4806100F022
:1004A00075FB2046002100F077FB20464FF4847155
:1004B00000F096FC20464FF4857100F091FC204638
:1004C00040F2091100F08CFC0720308070BD2046FE
:1004D000294600F091FC2046A72100F0FBFB05F522
:1004E000803500BF2046294600F09CFC0028F9D04A
:1004F000012120463160BDE8704000F0D3BC00000F
:10050000FEE70000704700007047000070470000E1
:1005100000F038B981B042F21000C4F20200C168A4
:1005200001F0060106295BD0C168890458D540F264
:10053000231148F6AB12C4F26751CCF6EF5240F8E3
:100540000C1C40F80C2C40F8081C40F8082C0168E2
:1005500041F020010160016841F04001016000BFED
:1005600050F8041CC907FBD1016821F0200101608B
:10057000016841F010010160C16811F0060F4FF6EB
:100580000001C1F6FF7106D0C26802F00602022A1D
:1005900003D1BB2200E0A5220A80C268DF2303EA60
:1005A00012224A80C268C2F307428A80C268120ED1
:1005B000CA800269D2B20A81026992B2120A4A81E1
:1005C00050F8041CC907FBD1016821F0100101603B
:1005D000016821F400710160016841F0800101604F
:1005E0004EF68851CEF200010A6841F2040042F44E
:1005F0007002C4F202000A6050F8041C41F00101CC
:1006000040F8041C50F8041C8907FBD5016841F030
:100610008001016000210091009A4F2A06D800BF96
:10062000009A01320092009A502AF9D3026842F0EF
:1006300090020260009100994F2905D8009901317C
:10064000009100995029F9D301684FF6FF7221F00B
:100650000301016050F8041CCFF6F262114040F82B
:10066000041C01680C22C0F6FF0211400160016801
:100670004FF6FF72C7F2C27211400160826A4FF6F4
:10068000F071C3F6FF710A408262C26A40F203133E
:100690009A43C262C26A4FF6FF7322F48032C2628A
:1006A000C26ACFF2C07322F00042C262026B22F033
:1006B00001020263D0F8BC2022F48032C0F8BC20D2
:1006C00000224260C0F8C82002680260026842F45A
:1006D00000520260026842F48062026002681A40BE
:1006E0000260826A11408162016841F0006141F458
:1006F00080210160816A816250F8041C41F08071A0
:1007000040F8041C50F8041C8901FBD5016821F055
:1007100003010160016841F00201016001680907FD
:10072000FCD54FF00060002101B000F0BFBC00001C
:1007300080B54FF08040012101F03EFC012818BF38
:1007400080BD40F22C10C2F2000001684A1C9F29B3
:10075000026003DB4FF0804001F0B0FB4FF08040BF
:100760000121BDE8804001F023BC0000FEE700004D
:1007700040F2B001C2F20001086000BF0868002822
:10078000FCD1704740F2B000C2F2000001680029BD
:1007900008BF7047016801390160704740F2084C9A
:1007A000C4F2010C5CF8083C012923EA00034CF870
:1007B000083C5CF8043C23EA00034CF8043CDCF8F9
:1007C000003023EA0003CCF80030DCF8043023EAE0
:1007D0000003CCF8043019D021B95CF8081C01439F
:1007E0004CF8081C022A18D0012A6FEA000118D020
:1007F000002A18BF7047DCF800201043CCF8000036
:10080000DCF804000840CCF8040070475CF8041CD5
:1008100001434CF8041C022AE6D1DCF80010014325
:1008200002E0DCF800201140CCF80010DCF80410E5
:100830000843CCF80400704740F21441C4F20101AF
:100840000860704740F20041C4F201014A6909683A
:10085000024000EA010018BF0122002818BF012051
:100860001040704743F20000C4F200004AF6AA218B
:1008700001607047F0B581B005461DA050F8250015
:1008800014460F4600F0F6FD4FF4C06000F0F2FD94
:1008900042F2D40142F2CC00C0F60001C0F60000E2
:1008A00051F8256050F8250000210122334600F060
:1008B000FFF8012F1CBF01B0F0BD0720022100226C
:1008C00000F0B8FB07200221012200F0B3FB0AA0D0
:1008D000415D002001F03EF8304600212246FFF73E
:1008E0005DFF304601B0BDE8F040FFF7A5BF00BF97
:1008F00011050000110500000605000010B50446B2
:1009000040F2115000F0B6FD40F2117000F0B2FD5F
:100910004FF090400121042200F038F84FF0904051
:100920000121082200F032F84FF09040022101220C
:10093000042300F0BDF84FF0904000210122042371
:1009400000F0E0F84FF0904002210122082300F06F
:10095000AFF84FF0904000210122082300F0D2F8B8
:10096000204601F06DFB20464FF4614101F03AFB57
:100970002046082101F08EFB2046042101F082FB75
:100980002046BDE8104001F077BB0000F0B5D0F87C
:1009900020E0D0F824C000230F27002505E000BF89
:1009A0000135082D03F104030CD022FA05F6F607F1
:1009B000F6D007FA03F62EEA060601FA03F446EA31
:1009C000040EEDE7082300240F2504E00133102B6B
:1009D00004F104040CD022FA03F6F607F6D005FA67
:1009E00004F62CEA060701FA04F647EA060CEDE7DE
:1009F000C0F820E0C0F824C0F0BD000080B54FF082
:100A0000904002210022802300F052F84FF09040E5
:100A100000210322802300F075F84FF0904002215E
:100A20008022FFF7B3FF4FF09040022100221023F5
:100A300000F03EF84FF0904000210322102300F018
:100A400061F84FF0904004211022FFF79FFF4FF014
:100A5000904004214FF40072FFF798FF4FF0904050
:100A600004214FF48062FFF791FF4FF09040022184
:100A700001224FF4007300F01BF84FF09040012169
:100A800003224FF4007300F03DF84FF09040022134
:100A900001224FF4806300F00BF84FF090400121E9
:100AA00003224FF48063BDE8804000F02BB80000C3
:100AB0002DE9F041D0F800E0D0F80CC000244FF050
:100AC0000308002605E000BF0136102E04F10204E1
:100AD00012D023FA06F7FF07F6D008FA04F72EEA39
:100AE000070E01FA04F54EEA050E2CEA070702FA92
:100AF00004F547EA050CE7E7C0F800E0C0F80CC0D1
:100B0000BDE8F081F0B50129416814BF994319434C
:100B10004160D0F808C04FF6FF718A421AD1C26B0B
:100B200000214FF0010E0324002500BF0EFA05F648
:100B300016EA030705F1010504FA01F71CBF4CEAA8
:100B4000070C3243102D01F10201EFD1C0F808C0AB
:100B5000C263F0BD00214FF0030E002405E000BF8A
:100B60000134102C01F102010CD023FA04F5ED0739
:100B7000F6D00EFA01F52CEA050702FA01F647EA6B
:100B8000060CEDE7C0F808C0F0BD0000026822F4D2
:100B90008062114301607047026822F400621143D1
:100BA00001607047F0B581B00446022017460D463B
:100BB00000F094FA4DF68361C4F21B31A0FB0112E0
:100BC000910C44F6BF52C0F2C13290420A4688BF2F
:100BD0003F22636848F2A066C0F2010623F03F039B
:100BE000B54243EA0203636007D840F68032C0F2A0
:100BF000B23290422DD33F2133E041F68021C0F242
:100C000006018D423BD84FF49671514344F6D352BE
:100C1000C1F26202A1FB0212012101EB92112162D9
:100C2000E169192221F48041002F18BF01F58041AC
:100C300008BF0322E161E1696A4341F40041B0FB6E
:100C4000F2F0E161E169020508BF41F001010843EA
:100C500012E048F27F42C0F21E0290428CBF013186
:100C6000022121626900B0FBF1F0042898BF042042
:100C7000E1696FF31F300843E06101B0F0BDC2EBE2
:100C8000021144F6D352C900C1F26202A1FB021262
:100C9000012101EB92122262E269192322F48042BF
:100CA000002F18BF02F5804208BF0323E261E2690A
:100CB0006B4342F40042E261B0FBF3F0E26910439F
:100CC000E061C4F8901001B0F0BD00000069C0B24E
:100CD000704700000161704770B516460D46044626
:100CE000204640F2016100F063F80028F8D1204668
:100CF00000F0D8F820464FF4A06100F059F8002821
:100D0000F8D0204630216FF0010200F0B5F800BFA6
:100D1000204640F2015100F04BF80028F8D0204660
:100D200040F2015100F030F8204640F2075100F047
:100D30003FF80028F8D020463146FFF7CBFF00BF30
:100D4000204640F2075100F033F80028F8D0204642
:100D50002946FFF7BFFF00BF204640F2075100F0D1
:100D600027F80028F8D0204600F0A2F845F200400D
:100D7000C4F2000001688905FCD470BD016841F02F
:100D8000010101607047000040F20152914202D11E
:100D900041698069704701F01F02C1F389114FF06A
:100DA000010C0B580CFA02F223EA02020A507047B7
:100DB000C1F38912105801F01F01C84000F0010072
:100DC0007047000001F01F02C1F389114FF0010CC0
:100DD0000B580CFA02F223EA02020A507047000094
:100DE00001F01F02C1F389114FF0010C0B580CFAEE
:100DF00002F21A430A50704740F20912C0F201523F
:100E0000914202D1416980697047C1F30442890D62
:100E10004FF0010C0B580CFA02F223EA02020A50BE
:100E20007047000080B5C1F3891340F20912D0F871
:100E300004C053F800E021F48033C0F2065293421C
:100E400001F01F024FF0010303FA02F24FEA91533F
:100E50001B580EEA020006D10CF48062002818BF6D
:100E6000012000EA9220C1F3044123FA01F1002895
:100E700018BF0120084080BD21F00101023218BFD7
:100E80000131016170470000D0F800C06FF39F236B
:100E90002CF0020C41EA0C01016043EA020181607E
:100EA00070470000016841F48071016070470000E4
:100EB000016841F4007101607047000045F2004490
:100EC00040F21150C4F2000400F0D4FA40F2157060
:100ED00000F0D0FAFFF792FD00F07AFD4FF4C06009
:100EE00000F0DAF81720002102220025022600F087
:100EF000A1F820200021012200F09CF848F2A06116
:100F0000C0F2010120460022FFF74CFE20460021DE
:100F100000223023FFF7B8FF2046FFF72FFF2046BF
:100F20004FF48061FFF732FE4FF4106000F0D6F905
:100F30004FF4106000F0E2F900F0CCFA00F0C8FEC7
:100F400040F24800C2F200000721018040F2181070
:100F500040F21011C2F20000C2F200010160002054
:100F600001210122FFF786FC40F2BC00C2F2000022
:100F7000C0E90055C0E90255C0E9045540F2E80057
:100F8000C2F20000C0E90055C0E90255C0E90455AD
:100F900040F25800C2F20000C0E90055C0E9025515
:100FA000C0E9045540F28400C2F20000C0E90055D7
:100FB000C0E90255C0E9045540F2AC00C2F200009D
:100FC000066040F22810C2F200000321016040F6E2
:100FD0001D1000F075F940F24406C2F2000610B18F
:100FE00000F072F817E0326804F5584528460021F1
:100FF00000F04AFE4FF4FA70FFF7BAFB40F22010FF
:10100000C2F2000002682846002100F03DFE4FF0C9
:10101000804000F053FFA4F58050FFF76FFC32686A
:10102000A4F55050002100F02FFE00BF00F08CFA14
:10103000FCE700004EF60C5CCEF2000CDCF8003051
:1010400003F4E063A3F54073B3F5A06F01D21B0A6C
:1010500006E040F20053C0F2FA53CCF8003002230D
:1010600001FA03FCC3F104030F21D94011404EF2F1
:10107000001241EA0C01CEF20002090140EA02032B
:1010800083F8001300F01F01012303FA01F11C2370
:1010900003EAD0008150704740F080604EF60C515A
:1010A00040F0FD70CEF20001086070474FF680728C
:1010B000C1F6FF72114008434EF60851CEF200010E
:1010C0000860BFF34F8F704741F22400C4F2020062
:1010D000016841F0807101607047000070B541F215
:1010E0000402C4F202020146106841F2002CC0F270
:1010F0007A0C00F00C000828634641D11068136890
:10110000956AC0F38344C3F3C063B5F1FF3F204643
:10111000C8BF0230002B18BF2046B5F1FF3F044680
:10112000C8BF1134002B08BF0446002D204648BF1D
:101130002130002B18BF2046002D054648BF313511
:10114000002B08BF05461068936AC00306D440F61A
:101150000010C0F23D0005FB00F311E0906A5B0057
:1011600000F00F0000F1010302D4BCFBF3F005E036
:1011700046F60040C0F2DC20B0FBF3F000FB05F3C4
:10118000156816681068062916D8C5F3031548A413
:10119000655DC0F3C22023FA05FE42F2C205C0F627
:1011A0000005285C2EFA00F0DFE801F004080A418F
:1011B000101F2700184670BD002070BD704670BD1E
:1011C000C6F30220285C2EFA00F070BDD16AC90572
:1011D0002ED4D06AC00343F60070C0F2AB105CBFDF
:1011E00049F68070C0F2D50070BDD06A40064FF459
:1011F000004058BF48F2120070BDD16A890708BF8D
:1012000070BDD06A00F00300012818460FD0D06AE4
:1012100000F00300022804BF4FF4004070BDD06A04
:1012200000F00300032818BF4FF0000C604670BDAB
:101230001368D16AC3F38132DFE802F0020B172191
:1012400000295CBF400870BD4AF6AB20CAF6AA2050
:101250001DE000295CBF800870BD4CF6CD40CCF687
:10126000CC40AEFB0001880870BD002913D44AF6BB
:10127000AB21CAF6AA21A0FB0101880870BD002994
:101280005CBFC00870BD48F63960C3F6E300AEFB32
:101290000001480870BD44F62510C2F29240AEFB32
:1012A0000001AEEB010001EB5000800870BD00BFF3
:1012B0000000000000000000010203040607080906
:1012C00041F200028109C4F20202895800F01F00B5
:1012D00021FA00F000F001007047000041F2000325
:1012E00000F01F018009C4F202034FF0010CC25844
:1012F0000CFA01F11143C150704700000146B0F5EE
:10130000006F4FF0000021DBB1F5506F3CDAB1F512
:10131000006F57D0B1F5106F40F0958041F2000C8E
:101320004FF6FE71C4F2020CC0F20F01002200BFA2
:10133000DCF82400013942F10003800701D4002BBE
:10134000F6D1DCF82400C0F340007047002953D0E8
:10135000102979D0182976D141F2000C4FF6FE7190
:10136000C4F2020CC0F20F01002200BFDCF8000042
:10137000013942F10003800101D4002BF6D1DCF8E1
:101380000000C0F34060704747D043F21002914222
:1013900018BF704741F2000C4FF6FE71C4F2020C08
:1013A000C0F20F01002200BFDCF8C000013942F199
:1013B0000003800301D4002BF6D1DCF8C000C0F399
:1013C000404070474FF6FE7141F2000CC0F20F0131
:1013D000C4F2020C01F17C71002200BFDCF8200095
:1013E000013942F10003800701D4002BF6D1DCF86B
:1013F0002000C0F34000704741F20000C4F2020038
:10140000A1F2FF410268920703D4002901F1010112
:10141000F8D10068C0F34000704741F2000C4FF66D
:10142000FE71C4F2020CC0F20F010022DCF834009D
:10143000013942F10003800701D4002BF6D1DCF81A
:101440003400C0F34000704741F2000C40F2FF70DE
:10145000C4F2020C002200BFDCF80010013842F197
:101460000003890301D4002BF6D1DCF80000C0F39F
:101470004040704741F2000300F01F018009C4F2B0
:1014800002034FF0010CC2580CFA01F11143C15094
:101490007047000041F2000300F01F018009C4F210
:1014A00002034FF0010CC2580CFA01F122EA0101CB
:1014B000C150704741F2000300F01F018009C4F2DF
:1014C00002034FF0010CC2580CFA01F11143C15054
:1014D00070470000B0B540F20005C2F2000545F2C9
:1014E00000442978C4F2000420462022FFF7F4FBD0
:1014F000697820462322FFF7EFFBA97820462122B6
:10150000FFF7EAFBE97820462222FFF7E5FB29797D
:1015100020462522FFF7E0FB697920462422FFF7C9
:10152000DBFBA97920463022FFF7D6FBE97920467C
:101530003222FFF7D1FB297A20463322FFF7CCFB7A
:10154000BDE8B040FFF78EB92DE9F04F81B02DED29
:10155000028B82B040F21013C2F2000318780F28F9
:1015600040F0AA811979D8785A799B79090141EA22
:10157000101040F24A011B01C2F2000143EA1212AC
:1015800040F24C0308804FF20001B0F5006FC2F248
:101590000003CFF6FF7128BF084300EE100A9FED4D
:1015A000EC1A1A80B2F5006F28BF0A4302EE102A27
:1015B000B8EEC00AB8EEC22A80EE010A82EE018AB5
:1015C00040F25407C2F20007388040F25600C2F2DF
:1015D0000000028040F2A800C2F20000006840F261
:1015E0005808C2F20008009008EB800240F20C108C
:1015F000C2F20000006840F2BC01C2F2000101EB3F
:10160000800383ED000A83ED038A40F2E00382ED5C
:10161000000A82ED038A0022C2F20003019040F228
:101620007C00C3E9002240F21C0340F2840B40F22C
:10163000380440F2E80A40F22C0C40F2100EC2F2DC
:101640000000C2F20003C2F2000BC2F20004C2F2B8
:10165000000AC2F2000CC2F2000EC0E900220CE047
:1016600080ED001A0AEB8500019D002A00EB850041
:1016700002F1010280ED001A74D140F27C00C2F246
:10168000000000EB820999ED001A009F002609E096
:10169000002F4FF0020006F10406C8BF781E0C2E82
:1016A00007461FD002EB420508EB850000EB8700E0
:1016B00090ED002A981990ED003A002E22EE032AB0
:1016C00032EE011AE4D00BEB850000EB870090EDC1
:1016D000002A0EEB060090ED003A22EE032A31EECE
:1016E000421AD5E7009E0BEB850000EB860080EDEB
:1016F000001A40F2E000C2F2000000EB820089ED27
:10170000001A90ED001ADDF8049000260CE000BFEE
:10171000B9F1000F4FF0020706F10406C8BFA9F1A6
:1017200001070C2EB9469BD001EB850707EB890713
:1017300097ED002AA71997ED003A002E22EE032A12
:1017400032EE011AE4D00AEB850707EB890797ED23
:10175000002A0CEB060797ED003A22EE032A31EE41
:10176000421AD5E740F2AC00C2F20000022101604B
:1017700040F22810C2F20000C0F8009040F21C10A5
:10178000C2F200000321016010EE100AFEF732FDE4
:101790009FED690B53EC102BFEF711FD40F2B401E5
:1017A0000028C2F2000104BFC82008600A6840F2A5
:1017B000B800012AC2F2000004DB0023013A0360F2
:1017C0000A6017E040F2E001C2F2000191ED000A68
:1017D00091ED011A40F27C01C2F2000191ED012A63
:1017E00091ED003A20EE020A23EE011A31EE400A92
:1017F00080ED000A009945F256520131C5F255526A
:1018000051FB02F303EBD37303EB4303C91A40F21A
:10181000A803C2F20003196001990068013151FB6D
:1018200002F202EBD27202EB4202891A40F20C126F
:10183000C2F20002116040F210120021C2F2000256
:101840001170FEF7D7FC9FED3E0B044653EC102BB6
:101850000D46FEF7B4FCF0B9B5EE408AF1EE10FA91
:1018600019DA40F22805C2F2000542F200042A68A3
:10187000C4F2000404F58630002100F005FA2A685D
:101880002046002100F000FA40F22410C2F20000CD
:101890000121016010E040F224169FED2B0BC2F2F3
:1018A0000006376853EC102B20462946FEF76CFCE7
:1018B000002808BF012F07D002B0BDEC028B01B099
:1018C000BDE8F04FFEF7CEBF40F23014C2F2000484
:1018D000206840F22C15C2F2000520B928680028C3
:1018E0001CBF002028604FF0804000F0EDFA28680F
:1018F000012150282160DFDB00274FF080402F605E
:1019000000F0DCFA40F220102760C2F2000042F240
:1019100000040268C4F2000404F586300021376038
:1019200000F0B2F940F24400C2F200000268204622
:10193000002100F0A9F9BFE7CDCCCCCCCCCCF4BFD2
:101940007B14AE47E17AB4BF7B14AE47E17AA4BF03
:1019500000C07F448A08032A88BF70470C2303EA2B
:1019600081010F238B4000FA01FC01EB8200D94377
:10197000DFE802F002230D180820C4F2010002681B
:1019800011400160016841EA0C01016070470820C4
:10199000C4F20100826811408160816841EA0C0153
:1019A000816070470820C4F20100C2681140C16024
:1019B000C16841EA0C01C16070470820C4F201000F
:1019C000426811404160416841EA0C014160704742
:1019D00040F20C00C2F20000006844F6D351C1F29C
:1019E0006201A0FB01014FF0FF3000EB9110B0F15C
:1019F000807F00D3FEE74EF21001CEF20001486076
:101A00004EF62350CEF20000F0220270002207238F
:101A10008A600B6002707047016841F080010160CC
:101A200070470000032900F20F81DFE801F0028D0A
:101A300046D4016A21F001010162816921F00301AC
:101A400081611168036A19430162016A21F0020190
:101A50000162D188036A0B43A0F18041A1F5963160
:101A60004FEAB1210729036200F2EE80012303FA55
:101A700001F111F0E10F00F0E780016A21F00401AB
:101A800001629188036A19430162016A21F0080129
:101A900001621189036A1943016250F8041F21F49D
:101AA000807101605189036819430160016821F464
:101AB0000071016093890268C3E0016A42F6044C38
:101AC00021F480710162C169C4F2010C21F00301AB
:101AD000C1611168036A43EA01210162016A21F4CC
:101AE00000710162D388016A41EA0321ACF1040369
:101AF0009842016240F0A880016A21F4806101628D
:101B00009188036A43EA01210162016A21F40061BC
:101B100001621189036A43EA01210162DCF80000D5
:101B200020F48050CCF800005089DCF8001041EA25
:101B30000010CCF80000DCF8000020F40050CCF8D5
:101B40000000908902016DE0016A21F0100101623C
:101B5000816921F4407181611168036A43EA0111CE
:101B60000162016A21F020010162D188036A43EA1F
:101B7000011144F20003C4F201039842016255D0FE
:101B800042F60041C4F2010188425DD1016A21F0B0
:101B9000400101629188036A43EA01110162016A0E
:101BA00021F0800101621189036A43EA0111016297
:101BB00042F60440C4F20100016821F48061016032
:101BC0005189036843EA81010160016821F40061E1
:101BD0000160918933E0016A42F6044C21F480519E
:101BE0000162C169C4F2010C21F44071C161116844
:101BF000036A43EA01310162016A21F40051016282
:101C0000D388016A41EA0331ACF1040398420162CE
:101C100018BF7047DCF8000020F48040CCF80000CA
:101C200050898201DCF8003060460AE044F204008A
:101C3000C4F20100016821F48061016051890368E8
:101C40008A0042EA0301016070470000032988BF4F
:101C50007047DFE801F0020E050B50F8181F01E095
:101C600050F81C1F21F07001016008E050F81C1FA3
:101C700001E050F8181F21F4E041120201600168F0
:101C8000114301607047000003299CBF00EB8100F5
:101C900042637047032988BF7047DFE801F0020EF6
:101CA000050B50F8181F01E050F81C1F21F0080127
:101CB000016008E050F81C1F01E050F8181F21F4E3
:101CC0000061120201600168114301607047000069
:101CD0002DE9F04F89B040F20B60FFF7CBFB4FF4DA
:101CE000E060FFF7C7FB4FF4E160FFF7C3FB42F68C
:101CF0000046C4F20106304600F08EF84FF08040F6
:101D000000F08AF8A6F58634204600F085F80DF13B
:101D100004084FF0020900254FF47A7A3046414614
:101D2000CDF804900295CDF80CA08DF8105000F07D
:101D3000D1F804200DF1140BADF818003046002145
:101D40005A460595CDF81E50CDF81A50FFF76AFE99
:101D5000304600210022FFF797FF30460021602225
:101D6000FFF774FF304600210022FFF793FF304653
:101D70000121012700F02CF93046FFF74DFE3046D7
:101D800000F0A2F820464146CDE90195CDF80CA01F
:101D90008DF8105000F09EF8204600215A46ADF80C
:101DA0001A500597FFF73EFE4FF0804000210022B9
:101DB000FFF76AFF204600216022FFF747FF204619
:101DC00000210022FFF766FF2046FFF725FE204690
:101DD00000F07AF841F26F70CDE901059720039089
:101DE0004FF0804041468DF8105000F073F84FF0EE
:101DF0008040012100F0D8F80F2001210122FFF7D7
:101E000019F94FF08040FFF707FE4FF0804000F0D7
:101E10005BF809B0BDE8F08F10B542F6FF31C4F2AF
:101E20000101884214DD44F2FF31C4F2010188420D
:101E300020DC42F60041C4F2010188422AD044F27B
:101E40000001C4F20101884237D14FF444742CE000
:101E5000B0F1804F21D040F20041C4F2000188422D
:101E60001ED042F20001C4F20001884225D14FF495
:101E700081641AE044F20041C4F20101884212D0A8
:101E800044F60001C4F20101884218BF10BD40F2BF
:101E900012340AE040F20B3407E04FF4806404E0AF
:101EA00040F2014401E040F211342046FFF702FB0A
:101EB0002046BDE81040FFF7EDBA10BD016821F0E3
:101EC0000101016070470000016841F001010160FB
:101ED000704700000A8842F6004CB0F1804FC4F20F
:101EE000010C826218BF60452ED1036823F0700395
:101EF00003604B8802681A4302608A8803681A43A9
:101F0000026042F6FF338A68C4F201039842C2625B
:101F10000ADD44F2FF32C4F2010290421BDC60454C
:101F200025D044F200021EE0B0F1804F1FD040F2F5
:101F30000042C4F20002904219D042F20002C4F200
:101F40000002904213D02AE040F20043C4F20003A2
:101F50009842CAD0D5E744F60002C4F2010290428A
:101F600005D044F20042C4F20102904217D1026847
:101F700022F440720260CA8803681343A0F18042D1
:101F8000A2F596324FEAB222072A036007D801234E
:101F900003FA02F212F0E10F1CBF097B01634169F1
:101FA00041F0010141617047C2681143C16070474F
:101FB000C943016170470000C26800690A400840D7
:101FC00018BF0120002A18BF0122104070470000EE
:101FD000426C012922F4004208BF02F5004242642B
:101FE00070470000B0B5044643F60000C4F201009B
:101FF00084420D4607D044F20040C4F200008442FF
:1020000005D1022000E00620FFF768F800E000207C
:102010002168090406D400EB5500B0FBF5F080B24E
:10202000E060B0BD400000EB5500B0FBF5F04FF6AE
:10203000F0710140C0F342000844E060B0BD000010
:1020400010B543F60001C4F20101884209D044F200
:102050000041C4F20001884218BF10BD40F2114493
:1020600001E040F20E342046FFF724FA2046BDE896
:102070001040FFF70FBA0000016841F00101016054
:1020800070470000026822F00402026002681143F7
:1020900001607047026822F0080202600268114382
:1020A0000160704702E008C8121F08C1002AFAD177
:1020B00070477047002001E001C1121F002AFBD1C8
:1020C0007047000000000102030400000000004807
:1020D000000000484000000020000000002100082F
:1020E0000000002048000000A4200008482100084B
:1020F00048000020F0040000B420000800000000A8
:1021000077880010020008000022100000A24A0494
:102110000000803F6050FABF05E0743F50157D39E4
:102120005015FD3950157D39E80300000000803F4F
:102130001FB7FFBF686E7F3F32CB253532CBA53549
:0821400032CB253596000000AA
:04000005080001519D
:00000001FF
